:020000041000EA
:1000000000B5324B212058609868022188439860DF
:10001000D860186158612E4B002199600221596106
:100020000121F02299502B49196001219960352056
:1000300000F044F80222904214D00621196600F024
:1000400034F8196E01211966002018661A6600F04E
:100050002CF8196E196E196E052000F02FF8012189
:100060000842F9D1002199601B49196000215960AB
:100070001A491B48016001219960EB211966A021F2
:10008000196600F012F800219960164914480160C1
:100090000121996001BC002800D000471248134993
:1000A000086003C880F30888084703B5996A0420EC
:1000B0000142FBD001200142F8D103BD02B5186610
:1000C0001866FFF7F2FF186E186E02BD00000240BE
:1000D000000000180000070000035F00212200005C
:1000E000F4000018222000A00001001008ED00E03C
:1000F00000000000000000000000000074B24E7A12
:1001000000200420F7010010C3010010C5010010F9
:10011000C1010010C1010010C1010010C101001097
:10012000C1010010C1010010C1010010C701001081
:10013000C1010010C1010010C9010010CB01001065
:10014000CD010010CD010010CD010010CD01001037
:10015000CD010010CD010010CD010010CD01001027
:10016000CD010010CD010010CD010010CD01001017
:10017000CD010010CD010010CD010010CD01001007
:10018000CD010010CD010010CD010010CD010010F7
:10019000CD010010CD010010CD010010CD010010E7
:1001A000CD010010CD010010CD010010CD010010D7
:1001B000CD010010CD010010CD010010CD010010C7
:1001C00000BE00BE00BE00BE00BE00BE00F04BF888
:1001D000103800BEF2EB8871D4BD0010F0BD0010E5
:1001E0003402001090A31AE700202149086006C8D5
:1001F00081F3088810471F48006800282FD10DA4FC
:100200000ECC002902D000F012F8F9E71A491B4A77
:10021000002000E001C19142FCD1194988471949E9
:1002200088471949884700BEFDE701C901C29A42C3
:10023000FBD37047F0BD0010C0000020301000203C
:1002400060CD0010000004200000042060CD0010EC
:1002500000100420001004200000000070470B482C
:1002600003F094FB0047EFF30580C0B27047000035
:1002700008ED00E0000000D030100020B41600208F
:1002800089220010BD0600104522001057560000BC
:1002900006005250ABB36053D4B200100600525067
:1002A000861C0302E4B20010060052505422A29DA4
:1002B000F0B2001005005250DE65F46860CD001009
:1002C000F8B5C04610B5064C2378002B07D1054B76
:1002D000002B02D0044800E000BF0123237010BDB2
:1002E000F01100200000000010A20010044B10B517
:1002F000002B03D00349044800E000BF10BDC046F6
:1003000000000000F411002010A2001070B50600DB
:1003100001248C400A4B00221A70002505E02E2291
:10032000084903F007FB01356410002C05D0044890
:1003300040192642F3D03122F2E7014870BDC04691
:10034000D413002010A2001070B50E4804F07EFCFB
:100350000F2411E00F252D1B03212000FFF7D6FFEE
:100360000200290022318900074B5B185B682900D5
:10037000064804F09DFC013C002CEBDA044804F034
:1003800065FC70BD14A20010D804002030A200103B
:1003900044A20010D0B588B00C00062873D88000A5
:1003A000524B1B589F46524A5249200005F06AFAA8
:1003B00001281AD05049200005F08EFA002823D0D9
:1003C0004E49200005F088FA002821D04C49200031
:1003D00005F082FA00282DD04A49200005F07CFA69
:1003E00000282AD1FFF7B0FF4DE0474AD823D35861
:1003F000002B07D04549464804F05AFC454800F018
:10040000FBF940E04449F6E7444804F051FC3AE087
:10041000434B1B68434A110040393B48D0300668C3
:100420004768029603979820085800903E4804F0C9
:100430003FFC28E000F080FA25E007AB06AA3B4924
:10044000200005F01FFA02280ED1069B0F2B1AD8A8
:1004500022339B002C4AD318079A5A602D4800F08B
:10046000CBF9FFF771FF0EE007AB06AA3049200079
:1004700005F008FA022806D12E4B079A1A6002E00E
:100480002D4804F015FC08B0D0BD2C4804F0DEFB6C
:10049000F9E72B4804F0DAFB1E4AB0230021D154BF
:1004A000F1E71C4B903318685968174B1A00D0328B
:1004B00016685768D8229B58002B10D0134B194A46
:1004C0001400403C04930296039700900191210090
:1004D0001C4804F0EDFBB0230122E254D3E70E4B9D
:1004E000EDE7194804F0B2FBCDE7C04690A3001039
:1004F000B00500207CA2001094A20010A0A2001061
:10050000C8A20010D0A20010D804002078A20010C9
:1005100084A200103011002074A2001098A20010D4
:10052000B805002070110020A4A20010D4A2001071
:10053000E0A2001084140020ECA2001000A3001020
:1005400010A3001020A3001088A30010F0B5C64629
:1005500000B580460F1E01D100240FE001002248A3
:1005600004F0A6FBF8E7230020339B001F4A9A58AB
:1005700001239340D022120693610134022C20DC27
:100580001A4E25002035AD00A85900F051FBAA599C
:10059000012319009140D0221206516242462241A5
:1005A0001342E0D0114AAA5801239340D0221206E8
:1005B0005361002FE1D00D4AA9580D4804F078FB93
:1005C000DBE7002F0CD10B4B1A6880239B015340B3
:1005D000E022D2011340084A136080BCB846F0BD47
:1005E000064804F033FBEEE7ACA30010D80400206B
:1005F000C8A3001000C0044000D00440D4A30010E1
:1006000070B504000021FFF7A1FF012001F0F6F909
:10061000002200210CE0244B04201860234B1B68AF
:10062000DB05FBD5214B5B681B041B0CC918013291
:100630001F2AF0DDCB171F251D406D186D11A3007B
:100640001B4A9B58AB4219DD5B1B0122032B00DCCC
:100650000022D2B2002A20D0A300154A9D500023C8
:100660000F200E2B11DC190022318900114A52187B
:100670005268AA4209DD01330138F2E7EB1A012280
:10068000032B00DC0022D2B2E4E7A3000A4A9B5805
:10069000834205D0A400A05070BD01204042FBE77A
:1006A00001204042F8E7C04600E0044000C004409A
:1006B000F4130020D804002044140020F0B585B0C5
:1006C00029492A4800F0ACF800F0F6F91F211C2057
:1006D00000F064FA002200211C2000F077FA0021CB
:1006E0001C2000F08DFA00260027204C200000F08E
:1006F000C3F9903423686468B34201D0002423E036
:10070000BC42FBD10520002136184F41174AB421C5
:100710000020505015004035002000210290039128
:10072000009301942900124804F0C2FA002307E064
:100730009A00642149420F4811500F48115001336B
:10074000072BF5DDDAE70134072CCEDC2000FFF7BC
:1007500057FF0028F7DB0421FFF7D8FD0200210036
:10076000064804F0A5FAEEE79503001030110020CA
:10077000F4A3001044140020F413002024A400105B
:1007800070B582B00600684604F02AFB00240025FC
:1007900007E06B461A5D7019044903F0CBF8023587
:1007A0000134072CF5DD02B070BDC04638A400103E
:1007B00070B582B00400EFF3108672B680210C4D44
:1007C0004901286809F00CFD802228685200094977
:1007D00009F0EEFC86F31088B823E458002C05D00D
:1007E00000230093002203490220A04702B070BDFD
:1007F000C8130020D804002010B50400064B186868
:10080000E022064904F042FE002800D110BD20007D
:10081000FFF7CEFFFAE7C046B8050020D804002055
:10082000F0B5CE46474680B583B004008846E12146
:100830000523042249023A4804F0ACFA642001F08E
:10084000DDF82500A835002600272E606F60002304
:100850009946B0334A46E25401F02CF9230088331C
:1008600018605960B8234246E2501C3B4A46E250A9
:100870002300A0331E605F602E606F602000FFF7D2
:100880007FFF192000F0D4F9D0231B0680229204A8
:100890005A6220004030234905F084F8224B234A55
:1008A00012689A1A982162501D001A0505D01D0B76
:1008B0002D0380235B019C4665441C4B1D601C4A34
:1008C000F0231B06EB1813601A49280005F026F8E0
:1008D00000281ED02000FFF76BFF164BD0330120FD
:1008E00000211D685E684019714118605960200040
:1008F000FFF782FFB823E558002D05D000230093B1
:100900000C4A21000120A84703B0C0BCB946B0463C
:10091000F0BDE0222900074804F086F8DDE7C04674
:1009200000800340C004002060CD0010B805002006
:10093000C8130020D804002010B50548B823C158BA
:10094000FFF76EFF00220021002001F027FF10BDFD
:1009500030110020F0B585B0040009F051FC05000D
:10096000039002909C23E358002B20D02300803377
:100970001E685F6820331A685B68B61A9F41002FB3
:1009800003D127D1334B9E4224D933480121494218
:1009900080197941314A002303F08EF80123184071
:1009A000012829D0D0231B06802292045A619C235F
:1009B000E358AB420CD09C23039AE250029B002BDD
:1009C00020D0230080331A685B68A0342260636003
:1009D00005B0F0BD002F03D1E4D1214B9E42E1D9F7
:1009E000204801214942801979411F4A002303F020
:1009F00063F801231840D3E7D0231B06802292041A
:100A00009A61D4E7D0231B06802292049A61002FBA
:100A100012D10ED0002F19D115D0B823E458002CD4
:100A2000D6D03104090C0023009300220320A047F4
:100A3000CEE70E4B9E42EDD90D4802F0A7FF030012
:100A40000021080098470B4B9E42E6D9FFF774FF40
:100A5000BEE7C046BFC62D004039D2FFE093040078
:100A60003F420F00C0BDF0FFA0860100C0C62D00B0
:100A70005542000040420F0010B5040001F01AF882
:100A800002000B00210080310A604B6008310868C9
:100A90004968121A8B4110001900064A002303F01E
:100AA0000BF823009033186059602000FFF752FFC5
:100AB00010BDC04640420F000123084A1360084A97
:100AC0001360084B9A6801239343FAD1064B012225
:100AD0001A60054B1B68DB05FBD5704700E0004042
:100AE00000F0004000C0004000C00440EFF3108060
:100AF00072B6034B1B68002BFBD0BFF35F8F7047B0
:100B00002C0100D0BFF35F8F024B00221A6080F3EC
:100B1000108870472C0100D0F8B506000C001500B5
:100B2000FFF7E4FFE308F718F15C072222400123F6
:100B300093400B4205D1DBB20B433B70FFF7E2FF62
:100B4000F8BD2100280001F01BFC0000034B1B68CE
:100B500002201840431E9841C0B2704700C00640B2
:100B6000002307E0054A9A189200BFF35F8F002127
:100B7000116001331F2BF5D97047C0464000003487
:100B8000054A1078431CDBB21370172B02D91300EF
:100B900010221A707047C046BC05002010B58300B3
:100BA000084A944663441C6840226240C0241440B2
:100BB0008022520113431C60C000034B9C466044DA
:100BC000416010BD04C001400040014080000B4B5B
:100BD0009C46604400290DD00823002A0CD0042232
:100BE0001343026853400C221340802252011043E9
:100BF000036070470023F0E70022F1E704C00140E2
:100C0000002909D08000094B9C46604480239B0149
:100C100018434023036070478000044B9C466044A7
:100C2000C0239B01184340230360F4E704C0014044
:100C300010B501238340D0221206936293610521EF
:100C4000FFF7ACFF10BD0000074B9B681030800021
:100C50001950BFF35F8FBFF35F8F044B0021196002
:100C600082F310887047C04600ED00E0240100D0F8
:100C700010B5091A081F0A4B9C466144094A914263
:100C800008D8C30706D440104005400D064B184352
:100C900080B210BD054B064A9921064801F0D6FAEC
:100CA000FC070000FE0F000000E0FFFF40A4001062
:100CB00088A6001070A4001010B5091A04394C0859
:100CC000090B08D14905490D064A11430180064B1D
:100CD0002343438010BD054B054AA121054801F07F
:100CE000B5FAC04600F0FFFF00F8FFFFB4A4001003
:100CF0005CA6001070A4001001238340034A106812
:100D00001840431E9841C0B27047C04600E100E061
:100D1000002904D0034B1860034B18607047034B45
:100D20001860FBE780E200E000E100E080E100E025
:100D300010B5012383401800FFF7EAFF10BD000043
:100D4000024B9B6810308000C058704700ED00E0F7
:100D500070B504000D00EFF3108672B60C4B1B68E3
:100D6000002BFBD0BFF35F8F2000FFF7E9FF094B9B
:100D7000984201D0A84205D1320029002000FFF797
:100D800063FF70BD044B054A7C21054801F05EFA03
:100D9000240100D0CD010010C4A40010A4A60010AE
:100DA00070A40010F0B5CE46474680B583B006006B
:100DB0000D00EFF3108872B6564B1B68002BFBD06A
:100DC000BFF35F8F544B9A6834001034A300D75898
:100DD000524B9F4207D0AF4200D199E00197504B50
:100DE000FB1A2F2B09D9424639003000FFF72CFFA0
:100DF00003B0C0BCB946B046F0BD3000FFF77CFF81
:100E0000814600213000FFF793FFBFF35F8FFFF7AC
:100E10002AFA002801D0844211D10123019C9C436D
:100E20000022A368AB4212D00622A256002A0DDB94
:100E300053009B189B002200394CE418F1E72C2149
:100E4000384B394AFF31394801F000FA2200AB42F1
:100E500057D106256557002D39DB6B005B199A00C9
:100E60002F4B9B189A68A260DA79E27106229A5693
:100E7000A2719B795BB2002B10DABD200002A0802A
:100E80006B005B199B00264AD318294A1178997187
:100E9000157049463000FFF74BFFA4E7201D6B009B
:100EA0005B199B001E4A9B181A1D9B88D90A1C2996
:100EB00007D15B055B15023359005118FFF7D8FEC7
:100EC000DDE71C4B1C4AA721184801F0BFF9002898
:100ED00012D1002A0ED0FF239371184B9380144A2D
:100EE0001378A371164B0E49641A644163431B0DBA
:100EF0001370CEE7094FF2E7201D1249FFF7DCFE21
:100F0000C7E76021104B084AFF31084801F09EF9FD
:100F1000024F68E7240100D000ED00E0CD01001091
:100F2000C0050020D8A5001074A6001070A4001001
:100F3000B2160020C0A5001094A6001000BDFFFF4F
:100F4000AAAA0000FA050020FCA5001070B5040054
:100F5000012606432D4BF31A2F2B28D8FFF783F9D0
:100F600000282BD0EFF3108C72B6294B1B68002B96
:100F7000FBD0BFF35F8F274D22002449521A524104
:100F800055432D0D6DB2244B9B6880001B58B34216
:100F90001BD00022032A32D853009B189B001B4908
:100FA000CB189B795BB2AB421FD00132F2E7C22172
:100FB0001A4B1B4A49001B4801F048F988211A4B7B
:100FC000174AFF31174801F041F9134B9B68174A44
:100FD0001A50174B1A78A2711D70BFF35F8F0C4B1C
:100FE00000221A608CF3108870BD08005300991815
:100FF00089004118FF268E710E4A8A80E9E7CC21CC
:101000000D4B074A4900074801F020F9C0050020B0
:10101000240100D0AAAA000000ED00E004A6001000
:1010200040A6001070A400102CA60010CD010010E6
:10103000B216002000BDFFFF38A600100022044BAE
:1010400002E0044902C30132072AFAD97047C046B8
:1010500000E400E080808080024B9C46614489006F
:10106000016070474000003470B505000C000800B6
:1010700000F014FD200000F0F9FD0849200000F008
:1010800039FDFFF77DFD064B9C466044800068609B
:101090002C75A400034BE55070BDC046AD13001085
:1010A00040000034341400200A4B1A68EFF310811A
:1010B00072B61368002BFCD0BFF35F8F054B1B6823
:1010C000BFF35F8F00221A6081F3108840BF0020B9
:1010D000002170479416002010B5002922D0036823
:1010E0001B7B99421ED8174B9C46614409018368BB
:1010F0009C4661440C684968002A19D003681B7B30
:101100009A4215D883680F488446624412019A189F
:1011100010685368020001208B4201D80ED00020D5
:10112000C0B210BD084B094A3B21094801F08EF8B6
:10113000054B064A3B21064801F088F8A242EFD849
:10114000EDE7C046FFFFFF0F14A70010A4A9001091
:10115000D4A6001010B500291ED0037B99421BD8DD
:101160004B005B18033B0468A4466344002919D074
:10117000002A1DD0914221D0002A25D0047BA24212
:1011800022D804685000801803382018817019781C
:1011900000291FD11A7010BD104B114A6821114847
:1011A00001F054F8104B114A6F310E4801F04EF81F
:1011B0000F4B0E4A70210B4801F048F80D4B0B4ABB
:1011C0007121084801F042F8044B054A682105489E
:1011D00001F03CF841701A70DDE7C04648A70010E6
:1011E00010AA001064A70010B8A70010ECA9001006
:1011F000C4A70010D0A7001070B506000D001400A1
:10120000002914D0002A14D08068736898470028F9
:1012100006D0220029003000FFF79CFF280007E0DD
:101220002A0021003000FFF795FF200000E01000A9
:1012300070BD0800FCE70000F0B583B00500009227
:1012400001930AAB1C780BAB1F78002C26D00368E7
:101250005A7B944207D10123002B19D1002C3BD19A
:10126000200003B0F0BD002C0CD01A7B944209D8AA
:101270001A6863001B19033BD3189B78002BEBD033
:101280000123E9E73E4B3F4A68213F4800F0DEFF7B
:101290003E4B3F4A65213F4800F0D8FF03689C7BE6
:1012A000002CDBD012D01A7B94420FD862001219A6
:1012B000033A19688C46624451789973002900D129
:1012C000D9730023937053701370C7E72C4B2D4ACA
:1012D00068212D4800F0BAFF002C3AD02B681B7B08
:1012E0009C4236D82C4BE3181B01AA6894466344F1
:1012F000009A1A60019A5A60089A9A60099ADA600C
:101300002E68002C2BD030D0337B9C422DD863002C
:101310001B19033B32689446634400229A705A704A
:101320001A70717B22003000FFF766FF70738442F1
:1013300000D095E7287D009A019B00F023FC061E53
:1013400001D0002F17D00C9B002B00D188E71E7016
:1013500086E7124B124A3B210E4800F077FF114BF3
:10136000114AA521084800F071FF054B054A682184
:10137000054800F06BFF2868210000F02BFEE2E733
:1013800048A7001010AA001064A70010E8A70010DA
:101390001CAA0010D4A60010FFFFFF0F14A7001016
:1013A000A4A90010D0A6001000AA0010F0B5DE46D7
:1013B00057464E464546E0B58BB00990002308934A
:1013C0008200B24BD658370032E0B14BB14A3F21D0
:1013D000B14800F03BFFB14BB14A3B21B14800F0AE
:1013E00035FFB14BB14A8C21AE4800F02FFFB04B16
:1013F000AE4A9021AB4800F029FFA84BAD4A4021EE
:10140000A84800F023FF2A686B68099800F0BAFB2F
:1014100000239A4698467B68BFF35F8F00221A60CC
:1014200086F310884346002B51D1002800D126E1D5
:1014300000F040FB02000B1EC7DB002000210690DD
:1014400007917868EFF3108672B601680029FCD026
:10145000BFF35F8F396888464C7B002C32D0BAD0FE
:10146000097B8C42B7D8944965182D01B9688C4620
:10147000654428686968801A99410029C3DC01D154
:101480000028C0D10021404600F09AFDA042A8D11A
:101490002A686B6806920793AB689846EB689A4691
:1014A0004346002BA3D0002CA7D03B681B7B9C425B
:1014B000A3D8631EFA68D35C08931B0218433861F3
:1014C0000020A8E700239A4698460020A3E7089B3F
:1014D0001B022343994651461800C04705000E00E1
:1014E0007A68EFF3108B72B6136859424B41D9B248
:1014F000002BF9D1BFF35F8F002E26DB002E52DDCB
:101500003B69002B53D04B4572D100F0D3FA020057
:101510000B1E73DB0100180052197341984202D868
:1015200004D1914202D901225242D317002B6BDB26
:1015300000210491013103910294514601914146E9
:1015400000913800FFF778FE49E03B69002BD5D0C9
:101550004B451CD1069A079B10001900521BB34142
:10156000994202D804D1904202D901225242D317A3
:10157000002B12DB002104910131039102945146AA
:101580000191414600913800FFF756FE27E04B4B92
:10159000464A9F21434800F059FE3D4B3D4A3F21BA
:1015A0003D4800F053FE002E01D1002DA8D13A682D
:1015B000002C45D0537B9C422CD1012100293FD1E6
:1015C000D37B002B42D1D473002C52D03B681B7BC1
:1015D0009C424ED8FA68013C135D01331355002339
:1015E0003B617A68BFF35F8F13608BF310881FE74E
:1015F000324B2E4AA2212B4800F028FE244B254ACC
:101600003F21254800F022FE214B224A3F2122485B
:1016100000F01CFE002C0DD0137B9C420AD8630006
:101620001B19033B1068844663449B78002BC5D08C
:101630000121C3E7224B234A6821234800F006FE1C
:10164000224B234AF621204800F000FE002B0AD04E
:10165000117B8B4207D85900CB18033B11688C468D
:1016600063445C70AFE7164B164A6821164800F0D9
:10167000EDFD0A4B0F4A40210A4800F0E7FD0BB090
:10168000F0BCBB46B246A946A046F0BD34140020CB
:1016900010A8001070A900102CA8001014A70010AA
:1016A000A4A90010D4A6001078A8001088A90010E2
:1016B00090A80010C8A90010FFFFFF0F9CA8001001
:1016C00048A7001010AA001064A70010D8A80010A6
:1016D000DCA9001010B50A4B5B68002B04D00A216E
:1016E0000848FFF7B9FC10BD054C2300064A10213D
:1016F000206800F085FB03212000FFF7B5FCEEE732
:101700000806002094160020D910001010B5064BD2
:101710005B68002B01D0044810BD044B044A5C21D7
:10172000044800F093FDC04608060020FCA8001005
:10173000B0A90010D4A60010F0B5DE4657464E46BC
:101740004546E0B58BB0804616001F00149B9A46B4
:10175000159B994616AB1B789B461F2302AA9446FD
:10176000634400221A7032E0002809D04246126811
:10177000127B904204D8421E4146C9688A5C48E008
:10178000434B444A4021444800F060FD0798002B39
:1017900075D05B46002B72D04946D04704000D003F
:1017A00003000B4300D171E0002946DB00F082F911
:1017B00006000F1E55DB36196F41B94202D804D11D
:1017C000B04202D901267642F717002F4FDB43467D
:1017D0005A68EFF3108472B6136859424B41D9B27C
:1017E0000791002BF8D1BFF35F8F1F3302AA9446F5
:1017F000634404930023039302934B46019353469F
:10180000009332003B004046FFF716FD031EABD1AC
:10181000020041464968BFF35F8F00250D6084F3E5
:101820001088002B29D01F2302A98C4663441B7803
:10183000002BABD112021043A9E732003B00361B4C
:10184000AF41BB4202D804D1B24202D9012676424E
:10185000F717002FBBDA114B114A3F21114800F056
:10186000F5FC0E4B0E4A3F210E4800F0EFFC0B4BEF
:101870000B4A3F210B4800F0E9FC012040420BB02D
:10188000F0BCBB46B246A946A046F0BD0798F6E7B5
:1018900014A70010C8A90010D4A6001010A80010AA
:1018A00070A900102CA80010F0B587B006000F003A
:1018B000FEF7D9FC00281FD106246442E517A419BD
:1018C0007D41BD4202D803D1B44201D90024002594
:1018D000002D14DB0494059500F0ECF802000B1EBB
:1018E00013DBA41A9D41002D17DC14D03000390001
:1018F00000F0ECF807B0F0BD234800F041FD234BA9
:10190000234A3F21234800F0A1FC204B204A3F21DD
:10191000204800F09BFC002CE8D0FFF7F7FE0023E6
:10192000029301931C4B0093049A059BFFF704FF5D
:10193000002818DADAE7002300E00023002BD5D1D5
:10194000164B1A68EFF3108172B61368002BFCD0A7
:10195000BFF35F8F114B1B68BFF35F8F00221A60CC
:1019600081F3108820BF0499059A0D4B5B6A9A4257
:10197000E3D80B48806A884203D29A42DBD0012325
:10198000DCE70123DAE7C04620A9001010A8001008
:1019900070A900102CA80010A910001094160020A7
:1019A00000400540F8B504000D0000F083F8020087
:1019B0000B1E10DB20002900801859418B4202D8F1
:1019C00004D1824202D901204042C117002908DB1C
:1019D000FFF76AFFF8BD064B064A3F21064800F0B4
:1019E00035FC034B034A3F21034800F02FFCC0465F
:1019F00010A8001070A900102CA8001010B5FA2231
:101A000092000023002102F027FFFFF7CBFF10BD5B
:101A100070B5EFF305833F2018401038EFF3108CBA
:101A200072B6194B1B68002BFBD0BFF35F8F0123ED
:101A300019008140154A5163154A12781400C440B8
:101A4000234214D0114B5C6A8300124D5B599C42B7
:101A500006D38300104C1B598A430D490A7007E0D6
:101A60000A4A031D9B0099589950002300E0002367
:101A7000BFF35F8F044A002111608CF31088002BA4
:101A800000D0984770BDC046280100D000400540F6
:101A9000B3160020981600204412002010B5010053
:101AA000024A0348FFF738F810BDC04634AA0010B8
:101AB000B1160020044B5B6A034A906A1900536A0E
:101AC0009942F9D17047C04600400540084B5B6A17
:101AD00001E0074B5B6A8B42FBD301E0044B5B6A7E
:101AE0008B4203D1024B9B6A8342F7D37047C046B7
:101AF0000040054070B504000D00EFF3108672B68B
:101B00001B4B1B68002BFBD0BFF35F8F002D1CD03D
:101B10002000FFF715F9174B83420BD01900200066
:101B2000FFF716F901212000FFF702F90123A34076
:101B3000114A1360A400114BE550BFF35F8F0C4BAB
:101B400000221A6086F3108870BDA2000B4B0021A2
:101B5000D1500122A2400A490B7893430B700549EA
:101B60002000FFF71FF900212000FFF7E1F8E4E76C
:101B7000280100D0111A00103860054044120020DE
:101B8000B3160020F0B5DE4600B584B004001500A1
:101B900001921E000293FFF78DFF03958E4202D83B
:101BA0004ED185424CD9EFF3108B72B6274B1B6890
:101BB000002BFBD0BFF35F8F254A17780125A54086
:101BC000EBB23B431370234B5D63221D92000199DE
:101BD000D150A2002049029850501B6A2B4212D1CA
:101BE0001C4B1B6C2B4208D00020BFF35F8F174BA0
:101BF00000221A608BF3108823E0184B184AC12189
:101C0000184800F023FBFFF755FF8E4214D802D18D
:101C1000039B834210D80E4B1B78BB420ED00D4B5A
:101C20001D625D631F2004400123A3400E4A136020
:101C3000074B1F701E38D8E70020D6E70120D4E7F5
:101C4000012004B080BCBB46F0BDC046280100D0D6
:101C5000B3160020004005409816002058AA001036
:101C6000C4AA00107CAA001080E200E0EFF3108C00
:101C700072B60B4B1B68002BFBD0BFF35F8F0123A9
:101C80008340084A136208490A789A430A70BFF3EE
:101C90005F8F034B00221A608CF310887047C04698
:101CA000280100D000400540B316002010B50029DF
:101CB0001ED0037B99421BD84B005B18033B046882
:101CC000A4466344002919D0002A1DD0914221D096
:101CD000002A25D0047BA24222D804685000801834
:101CE000033820188170197800291FD11A7010BD8F
:101CF000104B114A6821114800F0A8FA104B114A04
:101D00006F310E4800F0A2FA0F4B0E4A70210B48BB
:101D100000F09CFA0D4B0B4A7121084800F096FA2E
:101D2000044B054A6821054800F090FA41701A708A
:101D3000DDE7C04648A70010D4AB001064A7001030
:101D4000B8A70010C0AB0010C4A70010D0A70010A7
:101D500070B506000D001400002914D0002A14D01C
:101D6000806873689847002806D022002900300058
:101D7000FFF79CFF280007E02A0021003000FFF752
:101D800095FF200000E0100070BD0800FCE7000097
:101D900010B50023437301338373037BC3730123A3
:101DA000027B9A4214D9002B0CD0027B934209D8B3
:101DB0005A00D218033A01688C4662440133DBB200
:101DC0005370EDE70B4B0C4A68210C4800F03EFACB
:101DD000002A09D0924207D8016853009A18033AA2
:101DE0008A180023537010BD024B034A6821034830
:101DF00000F02CFA48A70010D4AB001064A7001024
:101E000010B5017342608360FFF7C2FF10BD000090
:101E100070B50400081E00D170BD002934D0237BAA
:101E2000994231D84B005B18033B226894466344C7
:101E30005A78002AF0D02DD0237B9A422AD853001A
:101E40009B18033B21688C4663445D7800215970E0
:101E5000002825D0237B984222D843001B18033B3F
:101E600021688C4663440021597001002000FFF76F
:101E70006FFF060029002000FFF7CAFF02003100B3
:101E80002000FFF765FFC7E7084B094A68210948AA
:101E900000F0DCF9054B064A6821064800F0D6F947
:101EA000024B034A6821034800F0D0F948A700100C
:101EB000D4AB001064A7001070B505000C0016002C
:101EC000002928D02DD0037B99422AD84B005B18DB
:101ED000033B0268944663445A78002A27D19A78D3
:101EE000002A2AD11978FFF793FF0300002E03D0B0
:101EF000EA7B002A27D1EC73002B37D1002C49D084
:101F00002B7B9C4246D82B6861000C19033C1C19A2
:101F10000023637070BD224B224A3821224800F012
:101F200095F9224B224A6821224800F08FF9224B72
:101F30001C4A3A211C4800F089F9204B194A3B21E0
:101F4000194800F083F9002A0AD0297B8A4207D871
:101F500051008A18033A29688C4662445470CAE7D3
:101F6000124B134A6821134800F070F9002B0BD074
:101F70002A7B934208D843001B18033B2A689446E7
:101F8000634400229A70B9E7084B094A682109485E
:101F900000F05CF9054B064A6821064800F056F946
:101FA000E0AA0010ACAB0010E8AA001048A700108F
:101FB000D4AB001064A7001028AB001050AB001089
:101FC00070B504000A00457B2900FFF775FF6073B8
:101FD000280070BD70B50400002967D0437B8B4298
:101FE0000ED0002911D0037B99420ED84B005B180C
:101FF000033B0268D0188378002B0CD1002056E0F8
:102000000121FFF7DDFF012051E0294B294A68211A
:10201000294800F01BF9002B20D0227B93421DD8C9
:102020005A00D318033B2268D2182568EB5C8B4218
:102030001AD0002B1BD0227B934218D85A00D318F9
:10204000033B2268D21853788B4216D0002BF0D174
:102050001A4B1B4A67211B4800F0F8F8144B154A2D
:102060006821154800F0F2F84378137007E0104B30
:10207000104A6821104800F0E9F8437853700023B3
:102080008370437001222000FFF716FF0200617B7E
:10209000814205D02000FFF75BFE6073012006E05F
:1020A000094B074A6D21074800F0D0F8002070BDA9
:1020B00048A70010D4AB001064A7001038A6001089
:1020C00094AB0010E8AA001074AB001010B5040027
:1020D000FEF756FD01002000FEF7BEFFFF2323712F
:1020E000BFF35F8F10BD10B50400FEF749FD01007E
:1020F0002000FEF7B1FFFF23237100236371BFF3BC
:102100005F8F10BD70B504000D00062000F052FA7C
:10211000C000290001F08EFCC60908D00E4B9E427B
:1021200017D87F23184001303500460800E001250C
:102130006562A6622C348020800104430023236062
:10214000062000F037FA8000A901891901F072FC1D
:1021500070BD0026014DEBE7FEFF0000FFFF000011
:10216000002909D00A22064B9C466044434258414C
:102170004000044BC252704780225200F3E7C04631
:102180000080FCBFA816002070B505000C000620DA
:1021900000F010FA002829D0164B9D4227D080224B
:1021A000D203154B1A60154B1A60154B9B68110032
:1021B0009943FAD100212800FFF7D2FF210028001F
:1021C000FFF7A0FF2C002C34E96A60224A406E2100
:1021D000114080225201224311600A4B2B6380235D
:1021E0009B01234310221A600323AB6470BD80223D
:1021F0001204D6E70080034000E0004000F00040F9
:1022000000C000400103000000BEFDE703000A4AD1
:102210001268002A08D0084A1068C318074A9A4270
:1022200006D3054A13607047034A05491160F2E777
:1022300001204042F7E7C046CC13002000000420F4
:10224000B416002010B5FFF7DFFF000010B582B014
:102250000C001900002A0CD0084B002A0BD0019268
:10226000009323000200064802F022FD0120FFF740
:10227000CBFF044BF1E7034AF1E7C04680AC001006
:1022800090AC0010C4A3001070B52B4B2B4A1A6001
:102290002B4B2C4A1A602C4B9A682A4B9343FAD149
:1022A0002A4C01E008CC9847294B9C42FAD300F015
:1022B00001F9234B274A1A60234B9B68DB43DB0160
:1022C000FAD1254B40229A675A671A67DA66234C7F
:1022D00009E0234B234A83212348FFF7B7FF20005F
:1022E000FFF7F4FE0834214B9C4209D22368002BEF
:1022F000F5D0012BEDD12000FFF7F5FE0834F2E711
:102300001B4CA1681B4DC022280002F08DFBA5606C
:10231000FDF7A9FF002800D000BEFEF721FCFEF764
:102320008DFEFFF7D7F9144C01E008CC9847134B0A
:102330009C42FAD370BDC04600E00040BFCDFBFE1A
:1023400000F00040FE7F3C0000C00040181000205C
:1023500028100020FFFFFF0100F0014010100020B6
:10236000C0AC001038AD0010E0AC00101810002018
:1023700000ED00E0000000202810002030100020B8
:102380000FB400B583B0084802F060FC049B002B3A
:1023900007D005A90191180002F068FC034802F07B
:1023A00055FC0120FFF730FF28AD001084A300107A
:1023B000F8B5DE4657464E464546E0B505000F00E7
:1023C00092460A9A93424ED31A0E91461E020A9AD8
:1023D00000233000494601F06FFB80466C00641911
:1023E000A4002F4B9C4664446368834200D2606023
:1023F0002B1FDBB29B46012B3BD9C0239B01234300
:10240000802212011A60AB00264A9958002905D093
:10241000506901F00FFB01300138FDD153465A01DC
:1024200023685A40E0231A4080235B0123431A604B
:102430005A46012A28D980239B0123438022120176
:102440001A6043466360424600233000494601F06B
:1024500033FBAD00134B58510120F0BCBB46B246D4
:10246000A946A046F8BD104B104A2D211048FFF791
:10247000EDFE012FC1D1C0239B01234303221A602B
:10248000A368DB07FCD5C9E72168794003220A402D
:102490001A60A2680123BB401342FAD0CBE7C046C2
:1024A000008000405413002048AD0010A8AD00107B
:1024B0005CAD001030B583B00C2000F021F9FEF7C0
:1024C00045FB00280DD0002304E099002D4A2E483A
:1024D00088500133092BF8D92A4B2C4A5A6203B091
:1024E00030BD2B4B00229A6700F07CF9294B01226A
:1024F0001A60274B5B6C012BFBD1274B03221A6020
:10250000234B9B6B012BFBD1013300930433234AF4
:102510000121234800F054F805230093214A0121AA
:10252000214800F04DF8214B0093002202210420A5
:10253000FFF73EFF1E4D00952B00002201210520D4
:10254000FFF736FF104C00942300002200210720E3
:10255000FFF72EFF00942300002200210820FFF740
:1025600027FF0A4B00932300002200210920FFF7D8
:102570001FFF00952B00002200210620FFF718FF07
:10258000ADE7C04654130020006CDC021BB700000E
:10259000008000403CB0004030B00040002F68593F
:1025A00000800240008C864700C00240001BB7003C
:1025B000405973078000014BC058704754130020E6
:1025C000F0B5C64600B504000F0090461D000C2073
:1025D00001F030FA06003D4A42443D4B9A4243D84E
:1025E00043011B1A9901C91AC900091889014046FB
:1025F00001F020FA0200103A98235B009A4239D881
:102600006B1E062B3CD8069B013B062B38D8069B3D
:102610009D423BD343461A09B2423DD32D04069B4B
:102620001E0335432368002B3CDB2A4B9C424AD0D7
:1026300080225201284B1A60284B1A60284B9B6855
:1026400011009943FAD12760A060231DC022920196
:102650001A43212313602368002BFCDAE56008236A
:10266000136080BCB846F0BD1E4B1F4A11211F48A5
:10267000FFF7ECFD1E4B1C4A19211C48FFF7E6FD35
:102680001C4B194A1C211948FFF7E0FD1A4B164A4A
:1026900022211648FFF7DAFD184B134A252113486B
:1026A000FFF7D4FD22683F231340BB42BDD1A3688E
:1026B0001B051B0D8342B8D1E368EE22D202134002
:1026C000AB42B2D1CDE780229201B3E780E84BD391
:1026D00080F8A93200C0024000E0004000F0004055
:1026E00000C00040B8AD0010F8AE001018AE0010E9
:1026F0005CAE001078AE0010C4AE0010DCAE00106E
:1027000080239B000343014AD36270470080054049
:10271000024B1A68024B5A607047C046D013002023
:102720000080054010B50200164B8020C0051860DF
:10273000154B1648186000290AD0154BE021C90432
:102740001960002A09D1124B802212061A6010BDAE
:102750000C4BE021C9041960F3E753019B1A980060
:10276000801800010B4B186080235B04984202D351
:10277000084B094A1A60FFF7CBFF054B8022D205B0
:102780001A60E4E700B0054008200140FCFF0100AA
:1027900000A00540D0130020FFFFFF0010B503008C
:1027A00010000C4A8024E4051460002B0DD0012297
:1027B0001343094A094CD461094C5C4014625162CC
:1027C00093620021FFF7AEFF10BD034B0022DA61D8
:1027D000F7E7C04600B0054000800540D3C007B011
:1027E0002D3FF84F064BAA2212011A602F22DA6001
:1027F000044B054A1A60024B5B68002BFBDA7047FA
:10280000004002400060024000B0FA009A4200D24C
:1028100088547047704710B5002802D00B6849688B
:10282000984710BD0100002007E083001B185B00E3
:10283000501C08601078C01830380A681378303B94
:10284000DBB2092BF1D97047F0B5DE4657464E464C
:102850004546E0B583B093461F000C9B9A460D9CFD
:102860000E9B99460F9B9B0703D0B8460F000600AE
:1028700022E00192A34688464E46B9460700B4427C
:1028800007D2551C4B4641462020B84701342A0048
:10289000F5E73D004F465C46019B9B46B1464646E8
:1028A000B84637002E0007E0013C551C5346185D22
:1028B00043463900B0472A00002CF5D135003E00D0
:1028C00047460F9B9B0707D4100003B0F0BCBB46E4
:1028D000B246A946A046F0BDB0464E46B9462F00C6
:1028E0005D46531BB342EFD2541C4B464146202059
:1028F000B8472200F5E7F0B5CE46474680B585B02B
:10290000944698460C9D0D9C0EAB1B789946109AE8
:10291000119B129EB7071CD4002B0CD0F7070AD5C9
:102920004F46002F02D10C37374204D0013B02E062
:1029300030272F550134944201D21F2CF8D9F707C4
:1029400007D59C4205D21F2C03D830272F550134C0
:10295000F5E7F70615D5770505D4002C03D094428A
:1029600024D09C4222D00F9A102A2BD00F9A102AE2
:1029700030D00F9A022A35D01F2C02D830222A5587
:1029800001341F2C05D84A46002A31D02D222A5561
:102990000134039602930194009543466246FFF783
:1029A00053FF05B0C0BCB946B046F0BD621E012C55
:1029B00006D00F9F102F01D01400D4E7023CD2E7BD
:1029C0001400D0E7B206D1D41F2CCFD878222A55D4
:1029D0000134D1E7B206CCD51F2CCAD858222A55CB
:1029E0000134C9E71F2CC7D860322A550134C3E728
:1029F000720703D52B222A550134CAE73207C8D5FE
:102A000020222A550134C4E7F0B5DE4657464E462B
:102A10004546E0B593B081468A46089209931CABBF
:102A200010CB1B789B461E9D219B9846002C03D102
:102A3000102342469A4390468023DB0046461E40C0
:102A400042461A4212D0002C22D000260EE030332B
:102A5000D9B2771C0AAB99552900200000F0EAFF93
:102A6000AC4216D31F2F14D83E00040029002000CA
:102A700000F0E0FFCBB2092BE9D94246920605D51A
:102A80004121C918C9B20A39C9B2E2E76121F8E7A0
:102A9000270043460693209B05931F9B04930395B1
:102AA0005B46029301970AAB0093099B089A514633
:102AB0004846FFF720FF13B0F0BCBB46B246A9461C
:102AC000A046F0BDF0B5DE4657464E464546E0B559
:102AD00095B0089009910A920B931E9E1F9C20AB03
:102AE0001B789B46229B9946239D269B9A46330042
:102AF000234303D1103352469A4392468023DB008E
:102B000057461F4052461A4219D0330023432DD056
:102B1000002714E03033DAB27B1C98460CABDA5550
:102B20004A462B003000210000F0C6FFA5421FD806
:102B300019D043461F2B1BD8474606000C004A46B7
:102B40002B003000210000F0B7FFD3B2092BE1D9F0
:102B50005246920605D54122D218D2B20A3AD2B2D2
:102B6000DAE76122F8E7B145E3D901E000239846AE
:102B700053460693259B0593249B04934B4603934E
:102B80005B460293434601930CAB00930B9B0A9A5E
:102B900009990898FFF7AFFE15B0F0BCBB46B246E6
:102BA000A946A046F0BD0000F0B5DE4657464E46A9
:102BB0004546E0B591B083468A460C9298461A9CE9
:102BC00008941B9D099522002B002000290001F08C
:102BD0000AFA002800D0E5E001225242D74B20003B
:102BE000290001F0FBF9002800D0DBE0012252426D
:102BF000D34B2000290001F0DBF9002800D0D1E000
:102C000000220023089E3000099D290001F0D0F920
:102C1000002800D0DDE008980999069007918023EC
:102C2000DB001E9A1A400D921E9A1A4201D1062309
:102C30001C930698079904000D000A000600024341
:102C400000D1D1E0080D4005400DBE4CA4466044C3
:102C50000A03120BBC4B13431F0001F0D7F9BB4A08
:102C6000BB4B01F05AF9BB4ABB4B01F02FF90400F2
:102C70000D000022B94B3000390001F01EF9B84AAE
:102C8000B84B01F04AF902000B002000290001F0C6
:102C90001DF901F0D3F9814601F0B8F904000D00E7
:102CA000B14AB24B01F039F90022B14B01F00EF9F3
:102CB00001F0C4F90600AF4AAF4B2000290001F033
:102CC0002CF904000D00300001F0A0F9AB4AAC4B28
:102CD00001F023F902000B002000290001F0EDF8BB
:102CE00004000D0002000B0001F017F90A900B918F
:102CF000A44BF31800261F0522002B0020002900FA
:102D000001F0E4F80E900F9122002B0000208021AA
:102D1000C90501F0D2F804000D0000229A4B0A9870
:102D20000B9901F0DCF80022984B01F0CFF802007B
:102D30000B000A980B9901F0D2F80022944B01F095
:102D4000C5F802000B000A980B9901F0C8F80200C0
:102D50000B002000290001F0B9F802000B000E98CA
:102D60000F9901F0BCF80022774B01F0AFF8320068
:102D70003B0001F0D2F806000F0004000D00069A97
:102D8000079B01F02BF9002830D001235B429C46C1
:102D9000E14400227D4B3000390001F0A0F804002E
:102DA0000D0023E01E9B04931D9B03931C9B029329
:102DB000089A099B0092019343460C9A5146584643
:102DC00000F0FCF811B0F0BCBB46B246A946A046E4
:102DD000F0BD0023002406930794069680231B066B
:102DE0009C46654407951AE7002399464B46633392
:102DF000C62B1ED804261E9B1B0526D52B0023435D
:102E00000FD0644A644B0698079901F0DFF8002858
:102E100079D00022614B0698079901F0C9F8002883
:102E200071D01C9B4B4506DD4A46981A431E1C93E5
:102E300003E00526DFE700231C938023DB001E9AB6
:102E40001A431E920026002399461D9B9E4264D27F
:102E50009F1B02231E9A1A400A921E9A134202D006
:102E6000002E00D000274B46002B07D022002B005D
:102E70000698079901F033F8069007910022002385
:102E80000898099901F094F8002848D1444B1E9AFB
:102E90001340049303971C9B0293069B079C00938B
:102EA000019443460C9A5146584600F087F8002E8C
:102EB00000D187E71E9B9B063DD54525441C434614
:102EC000020051462800D8474B46DA179B1853405A
:102ED00005220592013E0496002203920A320292D4
:102EE0004A46D00F0190009343462200514658466F
:102EF000FFF78AFD0A9B002B00D163E702005F46C3
:102F00000C9E1D9D54E01C9B002B9ED00D9B002B06
:102F10009BD01C9B013B1C9397E7002799E7069CDD
:102F2000079D2200290080200006844661440B0092
:102F300006920793AAE76525C0E7C046FFFFEF7F2B
:102F4000FFFFEFFF01FCFFFF0000F03FFB799F5008
:102F50001344D33FB3C8608B288AC63F0000F83FB4
:102F600061436F63A787D23F71A379094F930A40EA
:102F70000000E03F1655B5BBB16B0240EF39FAFED9
:102F8000422EE63FFF03000000002C4000002440DA
:102F9000000018402D431CEBE2361A3F80842E417E
:102FA000FFF7FFFF541C434651462020B84722003C
:102FB000931BAB42F6D3100004E7C046F0B5DE46E3
:102FC00057464E464546E0B595B006900791934664
:102FD0009946209F1E9A1F9B1000190001F003F8CC
:102FE000002831D101225242BF4B1E981F9900F098
:102FF000DFFF002837D101225242BC4B1E981F9997
:1030000000F0ECFF00283DD10022B94B1E981F991B
:1030100000F0E4FF002850D10022B64B1E981F9903
:1030200000F0C6FF002848D1002200231E981F99F7
:1030300000F0BEFF002850D100239846229B5B057C
:1030400000D4B6E0002458E0229B0393219B029316
:1030500003230193A84B00934B465A4607990698C1
:10306000FFF7F2FB0EE1229B0393219B02930423C3
:103070000193A24B00934B465A4607990698FFF7D7
:10308000E3FBFFE00423229A1A4022990B4210D05E
:103090009B4B002A0FD0042222990391219902917F
:1030A000019200934B465A4607990698FFF7CCFBCE
:1030B000E8E0944BEDE70322EEE7229B0493219B8B
:1030C000039302971E9B1F9C009301944B465A4604
:1030D00007990698FFF768FDD4E01E9A1F9B002011
:1030E000002100F0EAFE1E901F9101239846A5E7FB
:1030F0000CAB30221A55013F01341F2C01D8092F87
:10310000F6D81E981F9900F099FF050000F07EFF89
:1031100002000B001E981F9900F0CFFEFA007A4BB8
:103120009B181A685B680A920B9300F0F6FE0890F1
:10313000099100F0A7FF060000F064FF02000B00F9
:103140000898099900F0B9FE0890099100226F4B88
:1031500000F044FF00282ED00136300000F052FF6E
:1031600002000B000A980B9900F028FF002801D0FC
:1031700001350026002F2CD1280000F047FF020067
:103180000B001E981F9900F098FE06000F00002209
:103190005E4B00F00DFF002846D100225B4B300053
:1031A000390000F01BFF00283ED1EB073CD501356C
:1031B0003AE0062746E70022544B0898099900F0A8
:1031C000F7FE0028D6D1002E01D0F307D2D5013664
:1031D000D0E7AA461F2C11D8013F0A21300000F089
:1031E00029FC651C30310CAB19550A21300000F068
:1031F00021FC092E0ED906002C00EBE755461F2CAA
:103200000CD87B1E002F09D00CAA302111551F00AD
:103210000134F4E72B0055461C00F0E71F2C03D8BF
:103220000CAB2E221A5501341F2C10D80A2128006D
:1032300000F0D8FB661C30310CAB19550A21280070
:1032400000F0D0FB051E01D03400EDE7340003236D
:10325000229A1340012B1CD01F2C06D84346002B6A
:1032600032D00CAB2D221A550134229B0393219BA3
:10327000029301940CAB00934B465A46079906986B
:10328000FFF7E2FA15B0F0BCBB46B246A946A0462D
:10329000F0BD219B002B13D04346002B02D10C33F1
:1032A00013420FD0219B013B2193190003E00CAB8B
:1032B00030221A5501348C42CED21F2CF7D9CBE7DD
:1032C0002199F8E72199F6E7229B5B0704D50CAB1F
:1032D0002B221A550134C8E7229B1B07C5D50CAB1E
:1032E00020221A550134C0E7FFFFEFFFFFFFEF7FF9
:1032F00065CDCD4165CDCDC110AF001014AF00102C
:1033000008AF001004AF001000B100100000E03F53
:10331000F0B5DE4657464E464546E0B593B0824688
:103320008B4690461193002900D1EBE200275546C9
:10333000119B1878002800D1E7E2252809D07C1CD1
:1033400043463A005946A847119B01331193270081
:10335000EEE7013311930024119A11780B00203B02
:10336000D8B2102803D88300D048C3589F460B001A
:10337000303BDBB2092B2CD92A292FD000230A930A
:10338000119B1A782E2A39D000239A46119A137865
:10339000683BD9B2122976D88B00C549CB589F46D5
:1033A00001231C4301321192D6E702231C43013250
:1033B0001192D1E704231C4301321192CCE7082378
:1033C0001C4301321192C7E710231C4301321192B2
:1033D000C2E711A8FFF726FA0A90D1E71C9B1A1D35
:1033E0001C921868002804DB0A90119B013311938A
:1033F000C6E702231C4343420A93F6E78022D20029
:1034000014435A1C11925A781300303BDBB2092B3B
:1034100004D92A2A07D000239A46B7E711A8FFF754
:1034200001FA8246B2E71C9B1A1D1C9218680028FC
:1034300004DB8246119B01331193A7E70020F8E7D4
:1034400080235B002343511C119152786C2A01D0D8
:103450001C0018E0C0239B001C430131119112E0B5
:1034600080232343511C11915278682A01D01C00FB
:1034700009E0C0231C430131119104E080235B006B
:103480001C4301321192119B18780300253BDAB2DC
:10349000532A00D92CE29300864AD3589F468023B2
:1034A0009B001C4301321192EDE780235B001C431B
:1034B00001321192E7E7782809D0582838D06F28D0
:1034C00038D0622838D010239C430A2600E010260A
:1034D000582833D0692803D0642801D00C229443A3
:1034E000630501D50122944369282AD0642828D095
:1034F000A30500D59FE0E30500D5B8E0630600D43E
:10350000CAE01C9A111D1C911168FF220A40059403
:103510000A9B04935346039302960023019300925F
:1035200043463A0059462800FFF76EFA070027E0A5
:103530001026CDE70826CBE70226C9E72022144350
:10354000C8E7A30520D4E30550D4630666D51C9ACA
:10355000111D1C911168FF220A40D317D118594040
:1035600005940A9B0493534603930296D20F01924B
:10357000009143463A0059462800FFF745FA0700F4
:10358000119B01331193D3E61C9BDA1D07218A435B
:10359000110008311C91116853689C46DB170C938D
:1035A0000D930C9A0D9B100048400E9062465340BC
:1035B0000F930E980F990C9A0D9B801A99410E90BB
:1035C0000F9108940A9B0793534606930496002391
:1035D00005936346DA0F02920090019143463A0048
:1035E00059462800FFF76EFA0700C9E71C9A111D1B
:1035F0001C911268D317D118594005940A9B049363
:10360000534603930296D20F0192009143463A002B
:1036100059462800FFF7F8F90700B1E7230605D55A
:103620001C9A111D1C910023D25E96E71C9A111D55
:103630001C91126891E71C9BDA1D07218A43110037
:1036400008311C9108940A9B0793534606930496ED
:103650000023059302931368546800930194434632
:103660003A0059462800FFF72DFA070088E71C9A10
:10367000111D1C9105940A9B0493534603930296D3
:10368000002301931368009343463A0059462800EB
:10369000FFF7BAF9070073E723060DD51C9A111D31
:1036A0001C9112681204120C31E7C0461CAF0010C6
:1036B00060AF0010ACAF00101C9A111D1C91126875
:1036C00025E746281AD01C9B0733072293431A008C
:1036D00008321C9204940A9A0392524602925C6841
:1036E0001B680093019443463A0059462800FFF7AF
:1036F00065FC0700119B0133119319E620231C433D
:10370000E1E7672801D0472802D180231B011C4331
:10371000452801D0472801D120231C431C9B073397
:10372000072293431A0008321C9204940A9A0392C7
:10373000524602925C681B680093019443463A002B
:1037400059462800FFF730FA0700119B0133119307
:10375000EEE502231A002240924623421FD00124A4
:103760001C9B1A1D1C927A1C9146187843463A00FD
:103770005946A8475346002B16D1119B013311938C
:103780004F46D5E5561C434659462020B8472300EE
:1037900032005C1C9D42F5D83D001700E0E7012394
:1037A0003A002F000A9DF4E74A46A9460A9D06E022
:1037B000571C434659462020C84734003A00661C2F
:1037C000A542F5D84D469146D7E71C9B1A1D1C9281
:1037D0001B6899465346002B00D1013B4E4601E041
:1037E000013613003278002A02D05A1E002BF7D17E
:1037F0004B46F21A10928023DB0026001E401C422A
:1038000003D0524501D95346109302231A00224097
:103810000B92234205D03A0037004C46A946554644
:1038200020E03A00109B5F46B3462E0006E0551C90
:10383000434639002020B04723002A005C1C0A9927
:103840009942F4D835005E46BB46109437004C468A
:10385000A946554606E01D000134561C434659460C
:10386000C84732002078002804D0002FF4D06B1E07
:10387000002DF0D117004D460B9B002B03D1119B5F
:103880000133119354E50A9F109B06E0561C4346F2
:1038900059462020A847230032005C1C9F42F5D8DF
:1038A0001700ECE721231C431C9B1A1D1C921B686C
:1038B0000093059408230493534603931023029323
:1038C0000023019343463A0059462800FFF79CF82D
:1038D0000700119B013311932AE57C1C43463A00F3
:1038E00059462520A847119B0133119327001FE556
:1038F0007C1C43463A005946A847119B013311935B
:10390000270015E50A4B9A4610E5AA46474502D31B
:1039100043465A1E00E03A00434659460020D0472D
:10392000380013B0F0BCBB46B246A946A046F0BD75
:10393000152800100EB410B585B0010007AC08CCF6
:1039400003940122009452420348FFF7E1FC05B0C2
:1039500010BC08BC03B018470D28001000B585B096
:10396000029003910121009313004A4202A90248E8
:10397000FFF7CEFC05B000BD172800100148042158
:10398000014B184730060020AD39001010B501007A
:1039900018231B8814221088984710BD10B5010009
:1039A00018231B8816221088984710BDF0B5C6460C
:1039B00000B507000E0000250123984600E0013500
:1039C000B5420AD2AC003C192068FFF7DFFF206047
:1039D0000028F4D100239846F1E7404680BCB84661
:1039E000F0BD0000124A936F9B0815D29066D16615
:1039F000002905D0FFE7FFE7FFE7516F106F704721
:103A000004B580210906C2175140002800D0C843E0
:103A100006F0D6FB002104BDF0B5146E556E576F4D
:103A2000166FFFF7E3FF1466556657671667F0BD1C
:103A3000000000D0114A936F9B0813D210665166A4
:103A4000002905D0FFE7FFE7FFE7516F106F7047D0
:103A500004B5002801D00020C04306F0B1FB0021CE
:103A600004BDC046F0B5146E556E576F166FFFF764
:103A7000E5FF1466556657671667F0BD000000D075
:103A800094464E4A926F9208624601D230E0C04698
:103A9000F0B54A4EB56F6D08FCD3346E756E776F16
:103AA000366F00F025F89446444A14665566576709
:103AB00016676246F0BDC0469446404A926F92082F
:103AC000624601D258E0C046F0B53C4EB56F6D0875
:103AD000FCD3346E756E776F366F00F04DF89446F8
:103AE000364A14665566576716676246F0BDC0468B
:103AF000002B24DB11D000293EDA00B5C943404237
:103B000000D1013100F038F8C943404200D1013101
:103B1000DB43524200D1013300BD002AEBD1002823
:103B200001D1002905D00020C90FC90701D1C04328
:103B3000410800B506F034FB0022002300BD00B5AB
:103B400000290ADBDB43524200D1013300F014F8B4
:103B5000C943404200D1013100BDC943404200D1B8
:103B60000131DB43524200D1013300F005F8DB4361
:103B7000524200D1013300BD002923D1002B18D1BE
:103B8000002A0CD0BC460D4F38667A66002100230F
:103B9000FFE7FFE7FFE77A6F386F67467047002857
:103BA00001D00748010000B506F0FAFA0022002310
:103BB00000BD02000B00002000217047000000D073
:103BC000FFFFFFFF002B00D0BFE0130C28D1002A1D
:103BD000E7D080B4114F39667A66FFE7FFE730B46B
:103BE000040C7B6F396F1B0423433B667A66FFE747
:103BF000FFE7FFE7C04684B27B6F3D6F1B042343A2
:103C00003B667A66FFE7FFE7C04600232C042D0CD5
:103C10007A6F386F00196941B0BC7047000000D05E
:103C2000F0B594460025140E01D112020835140F88
:103C300001D112010435940F01D192000235D40F45
:103C400001D152000135D40B0134254F7C66254C3F
:103C50003C660E0C93B2FFE7FFE7FFE73C6F66435D
:103C6000360C7703BE467343DF0B5B04C01AB941C1
:103C7000130C7343DB18C91ACE086643360CB644DE
:103C800093B273431F0F1B01C01AB941130C734346
:103C90001F0B1B05C01AB941860D8F023E436643B8
:103CA000360C092D24DB520A7243801A7703460A28
:103CB0006643360C16235B1BDE40DF40BF196446AB
:103CC0006643821B7046043506330100D940A84084
:103CD000C01900D30131A24206D20023F0BD00007A
:103CE000000000D0FFFFFFFF121B0130F3D3F1E70C
:103CF00009277F1BFE406446A2B27243801A00D29D
:103D00000139220C7243130C1204821A99410B00E0
:103D10007046043513370100F940A840801900D3DC
:103D20000131002B02D1A2420AD2F0BD013000D3F2
:103D30000131121BFAD2013BF8D1A24200D2F0BDF0
:103D4000013000D30131121BF7E7F0B51C0C00D095
:103D500080E00CB400251C0A04D11B02160E33436C
:103D6000120208351C0B04D11B01160F334312013C
:103D700004359C0B04D19B00960F3343920002350F
:103D8000DC0B02D192185B4101351C00971864418D
:103D90000134464F7C66464C3C660E0CFFE7FFE75D
:103DA000FFE7C0463C6F6643360C7703BE4697B2CA
:103DB0007743C01B00D20139C01B00D201399FB22A
:103DC0007743C91BC91B170C77437E04FF0B801B6D
:103DD000B941CE086643360C0C2D33DBB644120BCA
:103DE0001F053A431B0B97B27743C01B00D2013922
:103DF0009FB27743C91B170C77433E043F0C801BCF
:103E0000B941860D8F023E43664329277F1BFE4042
:103E10000C3D7746AF40BF1930BCA2B2ABB2724383
:103E20007343801A9941220C7243130C1204801AB6
:103E3000994102000B000137001BA941F9D2781EFD
:103E40000021F0BD0C277F1BFE4077467F0BAF4063
:103E5000FF19E0E700245D1C07D0144F7D6639662A
:103E6000FFE7FFE7FFE7FFE73C6F95B29EB26543D0
:103E70006643401BB141150C1E0C65436643360476
:103E80002F0C3E432D04401BB141994204D2020045
:103E90000B0020000021F0BD01D19042F7D3801A21
:103EA000994101349942F2D3F6E70000000000D0B6
:103EB000FFFFFFFF48404140484018B41B4B5B6880
:103EC000FC46019308BD04DF2742001018B4174BCD
:103ED0001B68FC46019308BD00DF31420010944688
:103EE000134A926F920809D2624618B40F4BDB68EE
:103EF000FC46019308BD0CDFE94400100C4AF0B504
:103F0000146E556E576F166F6246FFF7EEFF084A44
:103F10001466556657671667F0BD18B4034B9B6867
:103F2000FC46019308BD08DF8D430010901400206B
:103F3000000000D0FFB550404240504059404B4037
:103F4000594000E0FFB5154F4C00640D03D0BC4252
:103F500004D10C0314D80020090D09055C00640D80
:103F600003D0BC4204D11C030AD800221B0D1B0540
:103F700001264B4009D44B4003D58B4200D18242ED
:103F8000FFBD9942FCD19042FFBD0B43DB180343B8
:103F90001343F5D0C9434918FFBD0000FF070000D7
:103FA00000B5FFF7CFFF01D0002000BD012000BD0C
:103FB00000B5FFF7C7FF804100BDC04600B5FFF761
:103FC000C1FF01D9002000BD012000BD00B5FFF7F1
:103FD000B1FF01D9002000BD012000BD00B5FFF7F1
:103FE000A9FF804100BD012040054A00121804D8F5
:103FF0005A00121801D80020704701207047002095
:10400000704700000021002805D17047C1174840C3
:10401000401AFAD0C90713B5064B1B6898470CBC69
:10402000441CA2401005120B0349091B0905194342
:10403000114310BD901500201F04000010B54C0066
:10404000620D8023D218DB00D21A5B057E2A10DDB8
:104050009E3A13DACC170903490819435242D1405A
:10406000640001341532202A05DAD0400843604349
:1040700010BD002010BD0846604310BDC80FC01819
:10408000013810BD18B4044B5B6AFC46019308BDAF
:1040900024DF9946001000009014002018B4044B4F
:1040A000DB6DFC46019308BD5CDFA54700100000F6
:1040B00090140020C94211D300B5490049080022DC
:1040C00000F018F8002904D4002240428A41114629
:1040D00000BD80210906002000BD000018B4044B7B
:1040E000DB6EFC46019308BD6CDFA74600100000A4
:1040F0009014002018B4044B9B6FFC46019308BD3C
:1041000078DFC346001000009014002018B4044B60
:10411000DB6FFC46019308BD7CDF314700100000D7
:104120009014002070B513231C78012C14D0012C9E
:1041300014DC022C02DC1F4A1F4B9A641F48FFF755
:1041400025FC1F4B186070BD99001A481A4A885008
:1041500001331F2BF8D9EAE70023FAE71948FFF7E4
:104160001DFC05001848FFF719FC023803789B0076
:104170007F2B19DD802229000F4800F055FC022C0E
:10418000D7D1124B1A88B5231B029A4209D1104B82
:104190001A88104B9A4204D10F4B1A880F4B9A423F
:1041A000C7D00020FEF7ECF80D4B0E4A32210E4826
:1041B000FEF74CF8ED410010901400204C33000045
:1041C000901500205344000053460000543800006E
:1041D000D8380000494600009C38000059460000CD
:1041E00050B1001000B20010B0B1001007B5604629
:1041F000002800D100BE01880A0A0230DF2AFAD165
:10420000C9B2820804D3028840880004104300E049
:104210000068024A5050039007BD0000901400202F
:104220000FB403BC0CBCF0B50124E407634000E00C
:10423000F0B50C0DCF0F661E3605891B640503D340
:10424000C943404200D30131640D03D0661CF60A15
:1042500007D0E41B00207F00791C89078912803C6D
:1042600024031D0DDF0F6E1E36059B1B6D0503D34A
:10427000DB43524200D301336D0D03D06E1CF60AAE
:1042800007D0ED1B00227F007B1C9B079B12803D0B
:104290002D032F1B661B58D4A446202E46DA203748
:1042A0001400BC401D00BD40F24033412A43801839
:1042B0005941CB0F05D0C943C0430022644250414D
:1042C000514162464D0D28D10D0D07D100281FD058
:1042D000241940414941013A0D0DF9D0640006D33B
:1042E000013000D30131002C01D140084000013AD7
:1042F0000BD4941CE40A04D112051144DB071944C1
:10430000F0BDD907204B194300E0D9070020F0BDCC
:104310000029DDD1002CDBD1F0BD0132C6074008F9
:10432000CD0728434908002EE1D0D9E73C2E29DAF1
:10433000203E40371400BC4000D00124F24014431A
:104340001A00BB401C43D317ACE7AC46202F08DA59
:1043500020360400B4400D00B540F84039412843F0
:10436000A5E73C2F0CDA203F40360400B44000D0D3
:104370000124F84004430800B1400C43C117EAE7A8
:1043800010001900002494E70000F07FF0B50C0D38
:10439000661E3605891BE60A6405640D02D0651C9D
:1043A000ED0A04D0002001210905803C2403A44625
:1043B0001C0D671E3F05DB1BE70A6405640D02D078
:1043C000651CED0A04D0002201231B05803C240358
:1043D0007740644497B484B296B27443070C7E432A
:1043E000150C6F4380B26843361802D301200004D5
:1043F0003F183004350C00197D41844688B29AB2CA
:1044000050430C0C62431F0C7C438EB27E439219C6
:1044100002D301263604A4191604170C3618674176
:1044200001BC81B29AB25143040C62431B0C5C4341
:1044300080B25843121802D301200004241810043B
:10444000130C401863412D185E410020474106BC03
:1044500088B293B258430C0C6343120C544389B294
:1044600051435B1802D301210904641819041A0C82
:10447000091862416D1856410020474118BCF902E5
:10448000720D1143F0026A0D1043ED020A0D03D1C3
:104490006D1940414941013B124E9B1B7600B342CE
:1044A0000ED26D0007D301300026714166463543B8
:1044B00001D1400840001B05C918E4072144F0BDA4
:1044C0000BDA013306D1013004D101314F0D01D097
:1044D0004908F2E7E1070020F0BD01363105002070
:1044E000EBE70000FF030000F0B51C0D671E3F0561
:1044F000DB1BE70A6405640D02D0661CF60A04D0D3
:10450000002201231B05803C2403D0252D06002614
:10451000F6432E661E096E66CE0FF619B4464900A4
:104520004F0D02D07E1CF60A03D000200021403F30
:104530003F033E1BB600B444013F7F05C91B490839
:104540002E6F013676089C02950D25437543ED13B9
:104550007543AD1301356D10F603761B0CB4CC0218
:10456000450D2C43A2B2B3B25A43270C7B43350C02
:104570006F43A4B26C431B1902D3012424043F19D6
:104580001C041D0CA4187D4124196D41009A91B2A0
:10459000ACB26143170C7C432B0C5F4392B25A437D
:1045A000A41802D301221204BF182204230C5218AB
:1045B0007B41019C6C431B19520ED9010A434401F3
:1045C000A01A81B2B2B2514303145A43360C73435A
:1045D00087B27743D617D21900277E4136049B193C
:1045E0001704160C7F185E417316ED18F3010026B0
:1045F00080337541A90F06D16400690AE8055B0A9A
:10460000184309D22FE00422944480337541A90A4B
:10461000A8059B0A184326D3404149412404009A27
:10462000019B0D005543641B4343E41A95B286B2C7
:104630007543170C7E43030C5F4392B25A43B6187E
:1046400002D301221204BF183204330C52197B41E9
:1046500052429C41002C02D40022013051414008BA
:10466000CA071043490802B06246D7079210084BA8
:10467000D218084B9A4203D212058918C919F0BD05
:104680000020002A01DC3900F0BD01331905F5E7EF
:10469000FD030000FE070000002200B5203200F0FC
:1046A00010F8080000BD002200B500F00CF8CA1791
:1046B0009A4200D100BDD8430121C907414000BD45
:1046C00000220B150AD410B5944600F0A7F8141474
:1046D000013400DA0021CB17144C204700200021C0
:1046E00070476244343A0CD40C2A07DA0400914033
:1046F000904052422032D440214310BDD843D94388
:1047000010BD203207D40C46944052422032114151
:10471000D040204310BD0800C917203203D45242B4
:104720002032104110BD1800190010BDE3460010E2
:104730004A00520D144BD21A13DDFF2A1EDAD2059D
:10474000CB0FDB071A43C300400F0903490A084394
:1047500010435B0001D301D0013070474308FBD206
:10476000704702D0C80FC00770470A031213013206
:10477000F8D1420F072AF5D1012200E0FF22C80F2D
:1047800000028018C00570478003000000210A0065
:10479000002104E000210A00C11704E000220023E8
:1047A00006E0C0460022CB1758405940C01A994134
:1047B00030B5184CA21A002903D1010010D00020F6
:1047C000203A4C1512D104D2013A001849414C0D3F
:1047D000FAD3114CA24204D212058918DB07C9187A
:1047E00030BDD243520D00200021F5E703D4013A39
:1047F00000184941FBD50B324405C00A4D0528433A
:10480000C90A640003D0002460416141E1E7E0D3BC
:104810004408F8E732040000FE0700000A0DCC0F40
:10482000531E1B05C91A520503D3C943404200D386
:104830000131520D03D0531CDB0A07D0121B00209C
:104840006400611C89078912803A1203014BD21A55
:1048500070470000FF03000051434343C9188C46D2
:10486000110C83B24B4310B4040C614392B280B27A
:10487000504362431C041B0C001910BC5941130423
:10488000120CC018514161447047000070B51323E9
:104890001D782A48FFF782F80400012D11D0012D60
:1048A00009DDA31E1B789B007F2B40DD80222100A9
:1048B000234800F0B9F82348FFF768F8224B186046
:1048C00070BD542201001E4800F0AEF81F4B1A883C
:1048D0001F4B9A421CD1A7239B011A881D4B9A4259
:1048E00016D11D4B1A881D4B9A4211D11C4B1A88A8
:1048F00094239B019A420BD11A4B1A881A4B9A4265
:1049000006D11A4B1A681A4B9A4201D1152307E0B7
:104910001848FDF735FD99001748094A88500133BA
:104920001F2BF8D9144A064B1A62DA61B7E7134B0A
:10493000134A42211348FDF789FCC0465346000044
:10494000941500204C33000090150020EE29000043
:10495000C40F0000C20D0000962B0000C0B500007F
:10496000182B0000CC2A000010B50000FC2C000021
:1049700051ED8764C4A300108949001014B20010DF
:1049800098B2001048B2001007B56046002800D168
:1049900000BE01880A0A0230DF2AFAD1C9B28208B1
:1049A00004D3028840880004104300E00068024AF3
:1049B0005050039007BD00009415002010B504006E
:1049C00000F08EFA002804D00419034B9C4200D852
:1049D00010BD0248FDF7D4FC00000420ACB200106A
:1049E00010B50C0000F086FD002804D00419034B1C
:1049F0009C4200D810BD0248FDF7C2FC0000042014
:104A0000ACB2001010B500F075FA10BD01480421D9
:104A1000014B184740060020AD390010014B1B68C0
:104A20001847000040060020014B5B681847000053
:104A30004006002010B50300080011001B689847CD
:104A400010BD0000F8B507000D001600437C002BD8
:104A500002D0002400200CE00368110028009847D1
:104A60002DE03B7C10E0022115483B689847601C14
:104A70000134B44214DA002CF3DD2B19013B1B780E
:104A80000D3B5A425341DBB22A5D0A2AF0D1002B7A
:104A9000EED1A042E7DA211A28183B689847E2E7EE
:104AA000B04203DA311A28183B689847002E06DD19
:104AB000AD19013D2B780D3B5A4253413B74F8BD73
:104AC00020B3001070B505000368002B16D00C4B06
:104AD0001C6805E0290004C92000FFF7B3FFE46863
:104AE000002C09D02368002BF9D0064B1B68002B43
:104AF000F0D0A342F3D1EDE700232B6070BDC04698
:104B0000BC130020C413002070B505000C000B6816
:104B1000802B05D021684B1C23606418257170BD63
:104B20000800FFF7CFFFF5E710B582B0D0231B06D2
:104B300000241C5701A9074805F04AFB002806D1AC
:104B4000019B9C4203D0034805F052FB012002B0B8
:104B500010BDC0461010002010B5024805F018FB2B
:104B600010BDC04610100020F0B5CE46474680B5B7
:104B700083B006000D0090461C00FFF7D5FF81466C
:104B80006B1C05D0002C08D0194F1A4B1C6807E08D
:104B9000300000F00FFF0500F4E7174FF5E7E46879
:104BA000002C17D02368002BF9D0144B1B68002B66
:104BB00001D0A342F3D12A0031002000B847434678
:104BC000002BECD06B46D91D0A230B70012220006C
:104BD000B847E4E74B46002B07D16B1E9D41E8B276
:104BE00003B0C0BCB946B046F0BDFFF7B5FFF4E76F
:104BF000354A0010BC130020454A0010C4130020A1
:104C0000094A01E00C331A001368002B08D08342D4
:104C1000F8D1002907D1C36813600023C36002E004
:104C2000002900D010607047BC13002010B5064B5F
:104C30001C6801E09847E468002C03D06368002BEF
:104C4000F8D1F8E710BDC046BC13002070B50500D0
:104C500000F0B0FE04000023012201002800FFF74D
:104C600083FFFFF7E3FF200070BD000070B5A2B026
:104C700004000E00FFF758FF05008422002101A860
:104C8000FFF7CCFE3300220001A90848FEF766FEBC
:104C9000040001A8FFF716FFFFF7C8FF002D02D19F
:104CA000200022B070BDFFF757FFF9E7094B001055
:104CB0000FB400B583B004A901C90191FFF7D6FF75
:104CC00003B008BC04B01847F0B583B005000E006F
:104CD00000240FE06B46D91D0D230B700020002827
:104CE00016D193699B06FCD40B7813600130013117
:104CF000F5E70134B44219DA0D4B1A682F5D0D4BFC
:104D0000D31859424B415B000B495B5EBB42E1D07B
:104D10006B46D91D0F7000200028EAD193699B06CD
:104D2000FCD40B78136001300131F5E703B0F0BD1E
:104D3000AC1600200080FCBFA8160020F0B583B0A0
:104D400006000F00002004E06B4607331B78237039
:104D50002800B84215DA0E4B1A6893691024210016
:104D600019401C420DD1451C34186B46D81D002932
:104D7000EAD19369DB06FCD413680370013101307A
:104D8000F5E7002801D003B0F0BD0338FBE7C046CB
:104D9000AC16002070B515001C000B4B1860FDF719
:104DA000F3F9002D06DA002C09DA01210748FFF794
:104DB00027FF70BD02212800FBF7F0FEF3E7022178
:104DC0002000FBF7EBFEF0E7AC16002050060020B9
:104DD00010B5024800F00CF810BDC0468814002041
:104DE00010B508220149FFF71FFE10BD88140020EE
:104DF00070B588B0040004AD002604960922002195
:104E000005A8FFF70BFE00960922002101A8FFF775
:104E100005FE4B232B700D226946280005F0B0F9E2
:104E2000002304E05A1D69468A5CE2540133072BD3
:104E3000F8DD08B070BD000070B50B0C0024150C37
:104E4000002B28D1002D37D18BB291B2594300F0FD
:104E50005BF8051E19D00300083B5A6803239A43E8
:104E6000043A242A13D80300132A0AD904604460A0
:104E700008331B2A05D98460C460242A25D0030086
:104E8000103300221A605A609A60280070BD002119
:104E9000FFF7C4FDF9E7002D11D1151C89B292B2BC
:104EA0004A43ADB29BB26B43110C5B18190C06D18F
:104EB000190492B21143CAE72B1C0D1CEEE700F057
:104EC00009F80C2300250360DFE7030004611833B1
:104ED0004461D6E7014B18687047C046640600205D
:104EE00010B5034B0100186800F00EF810BDC04665
:104EF0006406002010B5034B0100186802F0A6F903
:104F000010BDC04664060020F0B54E464546DE465C
:104F10005746E0B50D000B35060083B0162D22D89C
:104F2000102900D9B2E000F0D5FA1025182302208C
:104F3000CC4FFB181A005C68083A944200D1B5E0E7
:104F4000032362689A431300E268A168CA60916013
:104F50000122E318596830000A435A6000F0C2FA8F
:104F60002000083095E007239D4300D58EE0A9423C
:104F700000D98BE000F0AEFAFC235B009D4200D22A
:104F8000A7E1680A00D18BE0042800D97AE1382330
:104F90009846A80980443930C100B24F79184C684E
:104FA0000839A1420ED003239C4604E0002ACBDA44
:104FB000E468A14206D06246636893435A1B0F2AF5
:104FC000F4DD40463A003C690832944200D178E072
:104FD00003236168994389460B00491B0F2900DDB3
:104FE0007BE17A613A610029B2DA80229200914530
:104FF00000D30FE15909DA0801238B40D200796808
:10500000D2190B4391687B60E260A1609460CC6030
:10501000012182109140994259D80B4205D10322B7
:105020009043490004300B42FBD003239846C30051
:105030009946B944CC4682466346DC68A44507D10C
:105040002CE1002A00DB35E1E468A44500D125E12C
:105050004246636893435A1B0F2AF2DD01208046C3
:10506000611905436560A068E5680837C560A860F8
:1050700040461043F960B9604860CF6030008F60EF
:10508000E25000F02FFA2000083002E00C2300204C
:10509000336003B0F0BCBB46B246A946A046F0BDA3
:1050A00080213F2340209846890076E7DC68023063
:1050B000A34200D044E73A003C690832944200D051
:1050C00086E701217B68821091409942A5D903238C
:1050D000BC6862689A439146954203D8531B0F2BD4
:1050E00000DD89E023004B445F4A01935F4B934608
:1050F0001B681268EB18013200D13DE15C4A94460E
:1051000063441B0B1B0300933000009900F0A8FBC5
:1051100003008046013300D1FAE0019B834200D9AD
:10512000F4E0544B00981A009A4612680300944623
:10513000514663440B6001991A00414500D151E189
:105140005B461B68013300D156E1434601995B1A67
:105150009A1853461A600723424641461A40019264
:10516000194200D112E108239846881A424B00994F
:10517000804441449B1A5B1A1B051B0D00913000B3
:1051800019009B4600F06CFB431C00D150E14346E4
:10519000C01A03005B440093534652461B6801212A
:1051A0005B44136042464046BA60009A0A4342603C
:1051B000BC4200D124E14A460F2A00D822E1072050
:1051C0000C3A824360680140052011436160A118D8
:1051D000486088600F2A00D935E14246444652684B
:1051E00026490868984200D20B6025490868984211
:1051F00000D38FE00B608DE001222900134311439F
:10520000651961603000BD606B6000F06BF92000D3
:1052100008303EE75A0A042A72D9142A00D9C5E098
:1052200011005C325B31D20008235B429C46BA1805
:10523000944463469A6803239846944500D19EE0BF
:10524000434651689943494502D992689445F7D13C
:10525000D3689C467B686146A260E1608C60D46044
:10526000D6E6C046900A0020980E0020401200208A
:105270000F1000001012002008100000381200204B
:105280003C120020142852D9542800D996E06E23ED
:105290009846280B80446F30C1007EE608239B4669
:1052A000073BDC449B46DA4443465246134200D057
:1052B000C2E64CE00122E318596830000A435A6004
:1052C000E368A268D3609A6000F00CF9200008300F
:1052D000DFE62B00E80808332AE6012360191D43A6
:1052E000656078613861C26082601A004B460A438B
:1052F00042603000E15000F0F5F820000830C8E6C8
:105300009A09110039323831D2008DE7BC4260D0A1
:10531000BC68626803239A43531B954202D80F2B43
:1053200000DD69E7300000F0DDF80020B1E65B2326
:10533000984680445C30C1002FE608235B429C46BF
:10534000E1444B469B6801384B4500D098E043460A
:105350000342F2D17B688B437B604900994200D9BC
:10536000B5E6002904D1B2E6042294464900E2449D
:105370000B42F9D050465AE610330093C4E6891028
:10538000023B8B4079680B437B6064E7009B3000F5
:1053900043445B421B051B0D19009B4600F060FA5D
:1053A000431C00D0F3E600239B46F5E6542A2BD895
:1053B0001A0B11006F326E31D20035E7AA235B0061
:1053C00098422BD8DD3B9846E80B80447830C100EA
:1053D000E3E52C4B009A9A461B689C465346624470
:1053E0001A60ADE6090500D0AAE60200BC684A448E
:1053F00001310A436260F3E65B4642461A60AAE660
:105400004446EDE641608DE7AA2149008A4224D84E
:10541000DA0B110078327731D20005E71A4B984247
:1054200024D87C239846A80C80447D30C100B4E584
:10543000009A019B94464246083B63449B1A0093A2
:1054400000239B46A8E621003000083101F0FEFE53
:105450005346BC681B686268C2E60B498A420BD897
:105460009A0C11007D327C31D200DDE6FE217E23D4
:105470007F209846890090E5FE227E219200D3E6A7
:105480007B686AE7101200205405000030B5032A3B
:105490000CD903000B439B0719D103680C68A34286
:1054A00015D1043A04300431032AF6D8551E002AD7
:1054B0000BD0002303E05A1C9D4206D01300C25CAF
:1054C000CC5CA242F7D0101B00E0002030BD551E7E
:1054D000EFE7C04610B5024801F0B8FF10BDC04666
:1054E0000C12002010B5024801F0B2FF10BDC046FA
:1054F0000C120020030010B50A00034908681900C7
:1055000000F004F810BDC04664060020F0B5574610
:105510004546DE464E46E0B50C000700904683B097
:10552000002900D1A8E045460B35FFF7D3FF162D23
:1055300070D810251023A84570D82600083E716841
:1055400003220800904381460096984200DB77E0F2
:10555000C24A301893469268824200D1CAE042683B
:1055600001900092012292465046009A824301988F
:1055700094468346DC44624650465268024200D05C
:1055800071E00320009ACB4682439446E3449B4556
:1055900050DA52460A4211D103213268B21A9246B9
:1055A00052688A436146511849448B46994200DB50
:1055B00078E04A4493469A4200DB78E0414638005E
:1055C000FFF7A2FC8046002820D07368B446009301
:1055D00001230099020099430B00083A6344934267
:1055E00000D1F7E04A46043A242A00D9F7E0030044
:1055F0002100132A00D9C8E00A681A604A685A6074
:105600008A689A602100380001F020FE3800FFF718
:1056100069FF07E007239D432B1E8CDA0C233B60B8
:1056200000239846404603B0F0BCBB46B246A946AC
:10563000A046F0BDD946019AD3689268D3609A60BB
:105640004B465B1B0F2B1CD801214A4673680B404D
:10565000134373604E447368194371603800FFF759
:1056600041FFA046DEE70842A8D103213268B21A02
:10567000924652688A439CE71100FFF745FC80463A
:10568000D0E7012072687119024003431543756029
:105690004B604E447368083118437060380001F065
:1056A000D5FDDBE7019AD3689268D3609A605346D0
:1056B0005246DB6892685646D3609A604A46043A7E
:1056C0000836242A6BD83300132A09D95346216897
:1056D00099606168D9601B2A00D98EE008341033C4
:1056E0002268D9461A6062685A60A26834009A60DB
:1056F0005646A5E75068032290430D3282469446F1
:10570000CA44AC44E24552DACA0700D556E73168CC
:10571000721A0321924652688A43101801004944C4
:1057200000918C4500DD44E753465246DB689268A1
:10573000D3609A6008234A465344043A9846242A80
:1057400075D8132A08D95346216899606168D960D1
:105750001B2A71D80834103322681A6062685A60B4
:10576000A2689A60534659195B469960009B3800BD
:105770005A1B01231A434A605246526813401D4384
:1057800053465D60FFF7AEFE4CE72168016061683B
:1057900041601B2A27D82100083308312CE721005B
:1057A0003000340001F092FED946564648E75B4689
:1057B0000098A0464119996053465A1B01231A4389
:1057C0004A6041680B401D43456038000091FFF777
:1057D00089FE27E703225B689343994430E7210061
:1057E00001F074FE0EE7A1688160E168C160242ABF
:1057F0000CD0210010331031FEE6A1681961E16878
:105800005961242A0BD01034183369E7226921002A
:10581000026102006069183118335061ECE62269B8
:105820009A61524661692033D161183458E72100EA
:10583000180001F04BFE95E7A1681961E168596114
:10584000242A02D01034183386E722699A6152461E
:1058500061692033D16118347EE7C046900A002088
:10586000002370B5064D040008002B60FCF7CEFC49
:10587000431C00D070BD2B68002BFBD02360F9E7E0
:10588000C01300200EB430B581239CB06A461FAC13
:105890009B0020CC93820290069000F08BF80B4B7B
:1058A0006A460A9300230E931393013BD382084B5D
:1058B000039007902A00186802A92300019400F0C1
:1058C000A7F81CB030BC08BC03B01847D55800106E
:1058D0006406002000207047F0B50700002403256F
:1058E0000D4E3B5DF25C2A40012A00D12033085D59
:1058F000325C2A40012A08D01A1A834203D10028B8
:1059000002D00134EDE71000F0BD02002032981AF9
:105910009342F9D10134E4E7BDB40010024670B5FA
:105920000A4392072AD11E4DEE0104C808C9541B30
:105930009443344017D0D0B2D9B2401A2106014363
:1059400010D190B299B2401A210401430AD1100239
:105950001902000A090A401A2102014302D1100E5D
:10596000190E401A70BD9A42DFD010BA19BA884297
:1059700001D9012070BD0020C04370BD02780B78B2
:1059800001300131002A09D09A4207D102780B7800
:1059900001300131002A01D09A42EFD0D01A70BDF7
:1059A0000101010103000A7801311A700133002A54
:1059B000F9D1704710B583070AD00300032102E034
:1059C00001330B4205D01A78002AF9D1181A10BDFC
:1059D000030019680C4A0D4C8A188A4322420FD1E1
:1059E0005968094A04338A188A43224208D15968FF
:1059F000054A04338A188A432242F1D000E0013379
:105A00001A78002AFBD1E1E7FFFEFEFE808080804D
:105A1000F0B557464546DE464E46E0B5D34C0D0040
:105A2000A54402AF7B6238620C23C95E80239B01D0
:105A3000194205D10B43AB81696ECD4B0B406B66B0
:105A400013780132FB647A64002B01D101F07EFAF5
:105A500000229346FA61FA633A64FA62BA633A6AD8
:105A6000924608210C00C34AD25C1440114235D141
:105A7000252B14D17B6C00261A78002399468F338E
:105A80009C468D3B98467B6C591C1300253BDBB232
:105A9000552B0ED8B8489B00C3589F4679646B6855
:105AA000002B45DD7B6C2A68013B11781B789942FD
:105AB00035D0FB6B002B06D0FB6B1E68002E02D08E
:105AC0003000FEF79FFFBD46B86BB1239B009D449D
:105AD000F0BCBB46B246A946A046F0BD08245E46CF
