:020000041000EA
:1000000000B5324B212058609868022188439860DF
:10001000D860186158612E4B002199600221596106
:100020000121F02299502B49196001219960352056
:1000300000F044F80222904214D00621196600F024
:1000400034F8196E01211966002018661A6600F04E
:100050002CF8196E196E196E052000F02FF8012189
:100060000842F9D1002199601B49196000215960AB
:100070001A491B48016001219960EB211966A021F2
:10008000196600F012F800219960164914480160C1
:100090000121996001BC002800D000471248134993
:1000A000086003C880F30888084703B5996A0420EC
:1000B0000142FBD001200142F8D103BD02B5186610
:1000C0001866FFF7F2FF186E186E02BD00000240BE
:1000D000000000180000070000035F00212200005C
:1000E000F4000018222000A00001001008ED00E03C
:1000F00000000000000000000000000074B24E7A12
:1001000000200420F7010010C3010010C5010010F9
:10011000C1010010C1010010C1010010C101001097
:10012000C1010010C1010010C1010010C701001081
:10013000C1010010C1010010C9010010CB01001065
:10014000CD010010CD010010CD010010CD01001037
:10015000CD010010CD010010CD010010CD01001027
:10016000CD010010CD010010CD010010CD01001017
:10017000CD010010CD010010CD010010CD01001007
:10018000CD010010CD010010CD010010CD010010F7
:10019000CD010010CD010010CD010010CD010010E7
:1001A000CD010010CD010010CD010010CD010010D7
:1001B000CD010010CD010010CD010010CD010010C7
:1001C00000BE00BE00BE00BE00BE00BE00F04BF888
:1001D000103800BEF2EB887110CB00102CCB001051
:1001E0003402001090A31AE700202149086006C8D5
:1001F00081F3088810471F48006800282FD10DA4FC
:100200000ECC002902D000F012F8F9E71A491B4A77
:10021000002000E001C19142FCD1194988471949E9
:1002200088471949884700BEFDE701C901C29A42C3
:10023000FBD370472CCB0010C0000020181000200A
:1002400084DA0010000004200000042084DA00108A
:1002500000100420001004200000000070470B482C
:1002600003F0DAFB0047EFF30580C0B270470000EF
:1002700008ED00E0000000D018100020B8160020A3
:100280004D2300100D0700100923001057560000E1
:1002900006005250ABB3605338BE001006005250F7
:1002A000861C030248BE0010060052505422A29D34
:1002B00054BE001005005250DE65F46884DA001068
:1002C000F8B5C0460448054B10B5834203D0044B33
:1002D000002B00D0984710BD1810002018100020E7
:1002E0000000000006480749091A8910CB0F591869
:1002F00010B5491003D0044B002B00D0984710BD17
:1003000018100020181000200000000010B5074C45
:100310002378002B09D1FFF7D5FF054B002B02D026
:10032000044800E000BF0123237010BD1811002015
:1003300000000000B8AD0010054B10B5002B03D035
:100340000449054800E000BFFFF7CCFF10BDC046E0
:10035000000000001C110020B8AD001070B50600B0
:1003600001248C400A4B00221A70002505E02E2241
:10037000084903F025FB01356410002C05D0044822
:1003800028182642F3D03122F2E7014870BDC0465A
:100390002C130020F0AE001070B50E4804F010FDD4
:1003A0000F2411E00F252D1B03212000FFF7D6FF9E
:1003B0000200290022318900074B5B185B68290085
:1003C000064804F02FFD013C002CEBDA044804F051
:1003D000F7FC70BDF4AE0010B804002010AF0010A0
:1003E00024AF0010D0B588B00C00062873D8800068
:1003F000524B1B589F46524A5249200005F0C4FAFE
:1004000001281AD05049200005F05CFB002823D0B9
:100410004E49200005F056FB002821D04C49200011
:1004200005F050FB00282DD04A49200005F04AFB7A
:1004300000282AD1FFF7B0FF4DE0474AD823D35810
:10044000002B07D04549464804F0ECFC454800F035
:1004500005FA40E04449F6E7444804F0E3FC3AE09A
:10046000434B1B68434A110040393B48D030066873
:100470004768029603979820085800903E4804F079
:10048000D1FC28E000F088FA25E007AB06AA3B493A
:10049000200005F079FA02280ED1069B0F2B1AD8FE
:1004A00022339B002C4AD318079A5A602D4800F03B
:1004B000D5F9FFF771FF0EE007AB06AA304920001F
:1004C00005F062FA022806D12E4B079A1A6002E064
:1004D0002D4804F0A7FC08B0D0BD2C4804F070FCF7
:1004E000F9E72B4804F06CFC1E4AB0230021D154DC
:1004F000F1E71C4B903318685968174B1A00D0323B
:1005000016685768D8229B58002B10D1164B194AF1
:100510001400403C0493029603970090019121003F
:100520001C4804F07FFCB0230122E254D3E70B4BBC
:10053000EDE7194804F044FCCDE7C046B8AD001023
:1005400090050020DCAD0010F4AD001000AE0010EE
:1005500028AE001030AE0010B8040020D4AD00105A
:10056000E4AD0010F0130020D8AD0010F8AD00107D
:10057000980500203014002004AE001034AE0010A6
:1005800040AE0010001300204CAE001060AE001012
:1005900070AE001080AE0010E8AE0010F0B5C64698
:1005A00000B580460F1E01D100240FE00100224853
:1005B00004F038FCF8E7230020339B001F4A9A58C8
:1005C00001239340D022120693610134022C20DCD7
:1005D0001A4E25002035AD00A85900F057FBAA5946
:1005E000012319009140D022120651624246224155
:1005F0001342E0D0114AAA5801239340D022120698
:100600005361002FE1D00D4AA9580D4804F00AFCAF
:10061000DBE7002F0CD10B4B1A6880239B01534062
:10062000E022D2011340084A136004BC9046F0BD9A
:10063000064804F0C5FBEEE79CAF0010B8040020AC
:10064000B8AF001000C0044000D00440C4AF001098
:1006500070B504000021FFF7A1FF012001F00AFAA4
:10066000002200210CE0244B04201860234B1B685F
:10067000DB05FBD5214B5B681B041B0CC918013241
:100680001F2AF0DDCA171F23134059184911A30070
:100690001B4A9B588B4219DD5B1A0122062B00DC9A
:1006A0000022D2B2002A20D0A300154A995000237C
:1006B0000F200E2B11DC1D002235AD00114A5219FE
:1006C00052688A4209DD01330138F2E7CB1A012270
:1006D000062B00DC0022D2B2E4E7A3000A4A9B58B2
:1006E000834205D0A400A05070BD01204042FBE72A
:1006F00001204042F8E7C04600E0044000C004404A
:10070000A4130020B804002064130020F0B585B0C5
:100710002E492F4800F0B6F800F0FCF91F211C20EC
:1007200000F06AFA002200211C2000F07DFA00216E
:100730001C2000F093FA0026002727E0BC422ED1AF
:100740000420002136184F41214AB4210020505086
:100750001500403500200021029003910093019480
:1007600029001C4804F05EFB00240DE0A5001A4B94
:10077000E8580321FFF7F2FD0200184BEB58210067
:10078000174804F04FFB0134072CEFDD104C20001C
:1007900000F0A4F9903423686468B342CED00024FA
:1007A00000E00134072CF1DC2000FFF751FF0028A6
:1007B000F7DB0321FFF7D2FD0200A30007495B58D6
:1007C0002100074804F02EFBEBE7C046E5030010CC
:1007D000F013002054AF001064130020A413002075
:1007E00084AF001070B582B00600684604F0ACFB20
:1007F0000024002507E06B461A5D7019044903F0D8
:10080000DFF802350134072CF5DD02B070BDC046BB
:10081000E4AF001070B582B00500EFF3108672B639
:1008200080210C4C490120680AF0AEFA8022206831
:10083000520009490AF090FA86F31088B823EC5860
:10084000002C05D000230093002203490220A0477A
:1008500002B070BDE8130020B804002010B50400F9
:10086000064B1868E022064904F07AFE002800D101
:1008700010BD2000FFF7CEFFFAE7C0469805002024
:10088000B8040020F0B5CE46474680B583B00400DA
:100890008946E121052304224902394804F02EFB50
:1008A000642001F0E7F82500A835002600272E6017
:1008B0006F6000239846B0334246E25401F036F9A7
:1008C0002300883318605960B8234A46E2501C3B25
:1008D0004246E2502300A0331E605F602E606F60CE
:1008E0002000FFF77FFF192000F0D0F9D0231B066E
:1008F000802292045A6220004030224905F042F9D9
:100900002149224B1B68CB1A9822A3500D000B05DE
:1009100004D0090B090380235B01CD181B4B1D601C
:100920001B4AF0231B06EB1813601A49280005F038
:10093000E5F800281ED02000FFF76CFF154BD033E0
:10094000012000211D685E684019714118605960DE
:100950002000FFF783FFB823E558002D05D00023C2
:1009600000930C4A21000120A84703B00CBC90461C
:100970009946F0BDE0222900064804F0AFF8DDE713
:10098000008003404C13002084DA001098050020FA
:10099000E8130020B804002010B50548B823C1585A
:1009A000FFF770FF00220021002001F053FF10BD6F
:1009B000F0130020F0B5C64600B584B007000AF079
:1009C000F3F90600039080469C23FB58002B20D0AF
:1009D0003B0080331C685D6820331A685B68A41A8A
:1009E0009D41002D03D134D1334B9C4231D9334842
:1009F0000121494200196941314A002303F0A2F85C
:100A000001231840012836D0D0231B0680229204EF
:100A10005A619C23FB5843453AD09C23FE50039BCC
:100A2000002B2ED1D0231B06802292049A61002D28
:100A300035D131D0002D3CD138D0B823FE58002E0E
:100A400026D02404210C0023009300220320B04769
:100A50001EE0002D03D1D7D11A4B9C42D4D91A489D
:100A60000121494200196941184A002303F06AF83C
:100A700001231840C6E7D0231B06802292049A6106
:100A8000C7E73B0080331A685B68A0373A607B6039
:100A900004B004BC9046F0BD0D4B9C42CAD90D4831
:100AA00002F0BAFF03000021080098470A4B9C425D
:100AB000C3D9FFF771FFEBE7BFC62D004039D2FF66
:100AC000E09304003F420F00C0BDF0FFA08601008C
:100AD000C0C62D005542000040420F0010B5040072
:100AE00001F024F8230080331860596008331A6835
:100AF0005B68801A9941064A002303F023F823001B
:100B00009033186059602000FFF754FF10BDC046B5
:100B100040420F000123084A1360084A1360084B43
:100B20009A6801239343FAD1064B01221A60054BC0
:100B30001B68DB05FBD5704700E0004000F000407B
:100B400000C0004000C00440EFF3108072B6034BB9
:100B50001B68002BFBD0BFF35F8F70472C0100D0C8
:100B6000BFF35F8F024B00221A6080F3108870473A
:100B70002C0100D070B505000E001400FFF7E4FF53
:100B8000F208AA1815780721314001238B402B4227
:100B900005D1DBB22B431370FFF7E2FF70BD3100CC
:100BA000200001F04FFC0000034B1B68022018409E
:100BB000431E9841C0B2704700C00640002307E0C2
:100BC000054A9A189200BFF35F8F0021116001332C
:100BD0001F2BF5D97047C04640000034054A1078F5
:100BE000431CDBB21370172B02D9130010221A70AA
:100BF0007047C0469C05002010B58300084A944603
:100C000063441C6840226240C02414408022520188
:100C100013431C60C000034B9C466044416010BD00
:100C200004C001400040014080000B4B9C466044E2
:100C300000290DD00823002A0CD10022134302689A
:100C400053400C221340802252011043036070472E
:100C50000023F0E70422F1E704C00140002909D194
:100C60008000094B9C466044C0239B0118434023ED
:100C7000036070478000044B9C46604480239B01C6
:100C8000184340230360F4E704C0014010B501237A
:100C90008340D0221206936293610521FFF7ACFFD7
:100CA00010BD0000074B9B68103080001950BFF347
:100CB0005F8FBFF35F8F044B0021196082F31088B0
:100CC0007047C04600ED00E0240100D010B5091ABD
:100CD0000B1F0A4A94466144094A914208D8DA0730
:100CE00006D45B105B055B0D0648184380B210BD4F
:100CF000054B064A9921064801F00AFBFC07000053
:100D0000FE0F000000E0FFFFF8B1001008B0001077
:100D100028B2001010B5091A04394C08090B08D183
:100D20004905490D064A11430180064B2343438080
:100D300010BD054B054AA121054801F0E9FAC0465E
:100D400000F0FFFF00F8FFFF6CB0001014B00010BF
:100D500028B2001001238340034A10681840431E44
:100D60009841C0B27047C04600E100E0002902D1BE
:100D7000034B18607047034B1860034B1860F9E78A
:100D800080E100E080E200E000E100E010B5012336
:100D900083401800FFF7EAFF10BD0000024B9B687C
:100DA00010308000C058704700ED00E070B50400BE
:100DB0000D00EFF3108672B60C4B1B68002BFBD0B6
:100DC000BFF35F8F2000FFF7E9FF094B984201D086
:100DD000A84205D1320029002000FFF763FF70BD53
:100DE000044B054A7C21054801F092FA240100D009
:100DF000CD010010C0B10010ECAF001028B20010FF
:100E0000F0B5CE4600B584B001900D00EFF310862A
:100E100072B6584B1B68002BFBD0BFF35F8F564B4D
:100E20009A68019C1034A300D758544B9F4200D1BC
:100E30009BE0AF4200D19AE00297514BFB1A2F2B57
:100E400008D9320039000198FFF72CFF04B004BC28
:100E50009146F0BD0198FFF77DFF039000210198B6
:100E6000FFF794FFBFF35F8FFFF7FDF9002801D074
:100E7000844211D10123029C9C430021A368AB4210
:100E800012D00622A256002A0DDB53009B189A00AE
:100E900021003B4CA418F1E72C213A4B3A4AFF3190
:100EA0003A4801F035FA2100AB4257D10623E35608
:100EB0009946002B38DB5A004A449100304B5B18AE
:100EC0009A68A260DA79E27106229A56A2719B7939
:100ED0005BB2002B12DABD200002A0804B465B0003
:100EE0004B449A00264B9B18294A117899714B461E
:100EF000137003990198FFF749FFA2E7201D204ACC
:100F00008B181A1D9B88D90A1C2907D15905491528
:100F1000023149005118FFF7D9FEDEE71D4B1E4A8A
:100F2000A7211A4801F0F4F9002812D100290ED0A7
:100F3000FF238B71194B8B80154A1378A371184BC3
:100F40000F49641A644163431B0D1370D1E70B4FC3
:100F5000F2E7201D1349FFF7DDFECAE76021124BBF
:100F6000094AFF31094801F0D3F9044F69E7034FFB
:100F700067E7C046240100D000ED00E0CD0100107D
:100F8000A005002094B100103CB0001028B2001061
:100F90002A13002040B100102CB0001000BDFFFF4C
:100FA000AAAA0000DA050020B8B10010F8B50400C4
:100FB000012606432D4BF31A2F2B28D8FFF753F9A0
:100FC00000282BD0EFF3108772B6294B1B68002B3B
:100FD000FBD0BFF35F8F274D22002449521A5241A4
:100FE00055432D0D6DB2244B9B6880001B58B342B6
:100FF0001BD00023032B32D85A00D21891001B4A71
:101000005218927952B2AA421FD00133F2E7C2219C
:101010001A4B1B4A49001B4801F07AF988211A4BE8
:10102000174AFF31174801F073F9134B9B68174AB1
:101030001A50174B1A78A2711D70BFF35F8F0C4BBB
:1010400000221A6087F31088F8BD08495A00D618A4
:10105000B0000818FF2686710E4B8380E9E7CC218B
:101060000D4B074A4900074801F052F9A00500203E
:10107000240100D0AAAA000000ED00E058B1001041
:1010800050B0001028B2001080B10010CD01001047
:101090002A13002000BDFFFF8CB100100023044A7A
:1010A00003E00449116001330432072BF9D970477A
:1010B00000E400E080808080024B9C46614489000F
:1010C000016070474000003470B505000C00080056
:1010D00000F020FD200000F029FE0849200000F06B
:1010E00069FDFFF77BFD064B9C466044800068600D
:1010F0002C75A400034BE55070BDC04615140010BC
:1011000040000034F01200200A4B1A68EFF31081FF
:1011100072B61368002BFCD0BFF35F8F054B1B68C2
:10112000BFF35F8F00221A6081F3108840BF002058
:10113000002170471013002010B5002922D0036849
:101140001B7B99421ED8174B9C466144090183685A
:101150009C4661440C684968002A19D003681B7BCF
:101160009A4215D883680F488446624412019A183F
:1011700010685368020001208B4201D80ED0002075
:10118000C0B210BD084B094A3B21094801F0C0F824
:10119000054B064A3B21064801F0BAF8A242EFD8B7
:1011A000EDE7C046FFFFFF0F34B40010BCB20010E3
:1011B00040B5001010B500291FD0037B99421CD800
:1011C0004B005B18033B0468A446634400291AD013
:1011D000002A1ED0914222D0002A26D0047BA242AF
:1011E00023D80468500080180338201881701978BB
:1011F000002920D041701A7010BD104B104A682190
:10120000104801F085F8104B104A6F310D4801F07D
:101210007FF80F4B0D4A70210A4801F079F80D4B09
:101220000A4A7121074801F073F8044B044A682107
:10123000044801F06DF81A70DEE7C04698B400105B
:101240007CB20010B4B40010FCB4001088B20010DE
:1012500008B5001014B5001070B506000D0014009C
:1012600000290BD0002A12D08068736898470028A4
:1012700006D12A0021003000FFF79CFF200070BD3E
:10128000220029003000FFF795FF2C00F6E70C0044
:10129000F4E7000070B5CE4600B583B005000092BB
:1012A00001930AAB1C780BAB1B789946002C28D015
:1012B00003685A7B944209D10123002B1BD1002CD7
:1012C0003DD1200003B004BC914670BD002C0CD071
:1012D0001A7B944209D81A6863001B19033BD31880
:1012E0009B78002BE9D00123E7E73F4B3F4A682179
:1012F0003F4801F00DF83F4B3F4A65213F4801F060
:1013000007F803689C7B002CD9D012D01A7B94423A
:101310000FD862001219033A19688C46624451785A
:101320009973002900D1D9730023937053701370FF
:10133000C5E72D4B2D4A68212D4800F0E9FF002C10
:101340003BD02B681B7B9C4237D82D4BE3181B01ED
:10135000AA68944663440099019A19605A60089AF1
:101360009A60099ADA602E68002C2CD031D0337B39
:101370009C422ED863001B19033B32689446634499
:1013800000229A705A701A70717B22003000FFF7A9
:1013900063FF7073844200D093E7287D009A019B1D
:1013A00000F050FC061E02D04B46002B17D00C9BC1
:1013B000002B00D185E71E7083E7124B124A3B21B8
:1013C0000E4800F0A5FF114B114AA521084800F076
:1013D0009FFF054B054A6821054800F099FF2868E2
:1013E000210000F057FEE2E798B400107CB2001034
:1013F000B4B4001028B30010F4B2001040B50010CF
:10140000FFFFFF0F34B40010BCB200103CB5001059
:101410009CB20010F0B5DE4657464E464546E0B554
:101420008BB009908200BA4BD7583D00A3E0B94B6E
:10143000B94A3F21B94800F06BFFB94BB94A3B218B
:10144000B94800F065FF002B02D1002A00D0BCE0B3
:101450000021604600F014FEA04219D13268736882
:1014600006920793B3689946F3689A464B46002B59
:1014700014D0002C18D02B681B7B9C4214D8631E00
:10148000EA68D35C08931B02184328610020A4E09B
:10149000A64BA74A8C21A44800F03AFFA54BA44ACA
:1014A0009021A14800F034FF9D4BA34A40219E4863
:1014B00000F02EFF00239A46994600208DE02B690C
:1014C000002B00D1A9E043451CD1069A079B1000D0
:1014D0001900921BBB41994202D804D1904202D913
:1014E00001225242D317002B12DB0021049101315B
:1014F0000391029451460191494600912800FFF75B
:10150000C9FE30E08D4B8A4A9F21874800F000FFDA
:10151000804B814A3F21814800F0FAFE002F02D122
:10152000002E00D07CE02A68002C00D1C7E0537B5D
:101530009C4200D0ACE00123002B00D0BFE0D37B65
:10154000002B00D0C1E0D473002C00D1D0E02B6878
:101550001B7B9C4200D9CBE0013CEB689C46644479
:1015600023780133237000232B616A68BFF35F8FF8
:1015700013608BF3108800F0D9FA002900DA56E7DF
:1015800000230024069307946A68EFF3108772B66D
:101590001368002BFCD0BFF35F8F2B689C465C7BED
:1015A000002C87D000D148E71B7B9C4200D944E740
:1015B000634BE6183601AB68984646443268736858
:1015C000121A8B41002B00DC3DE7326873680998E2
:1015D00000F038FB00239A4699466B68BFF35F8F93
:1015E00000221A6087F310884B46002B00D185E05B
:1015F000089B1B022343984651461800C847060023
:101600000F006A68EFF3108B72B61368002BFCD0E2
:10161000BFF35F8F002F00DA51E7002F00DC7DE77A
:101620002B69002B00D17EE743451FD100F07EFAE5
:1016300002000B1E20DB0100180092197B4198422A
:1016400002D804D1914202D901225242D317002B71
:1016500018DB00210491013103910294514601915C
:10166000494600912800FFF715FE7CE7334B304ACE
:10167000A2212D4800F04CFE264B274A3F21274847
:1016800000F046FE234B244A3F21244800F040FE50
:10169000002C0ED0137B9C420BD863001B19033B1C
:1016A00011688C4663449B78002B00D144E70123EA
:1016B00042E7244B244A6821244800F029FE244BA9
:1016C000244AF621214800F023FE002B0AD0117B8A
:1016D0008B4207D85900CB18033B11688C466344F2
:1016E0005C7030E7174B184A6821184800F010FE6C
:1016F0000B4B114A40210C4800F00AFE002800D094
:1017000039E70BB03CBC90469946A246AB46F0BDCB
:10171000F012002050B3001064B200106CB300103F
:1017200034B40010BCB2001040B50010B0B30010CB
:101730000CB30010C8B30010C8B20010D4B300102E
:10174000FFFFFF0F98B400107CB20010B4B400107B
:1017500010B40010ACB2001010B50A4B5B68002B3F
:1017600004D00A210848FFF7A7FC10BD054C230050
:10177000064A1021206800F0A1FB03212000FFF79A
:10178000A3FCEEE7E805002010130020391100103B
:1017900010B5064B5B68002B01D0044810BD044B0C
:1017A000044A5C21044800F0B3FDC046E80500206F
:1017B00068B40010DCB2001040B50010F0B5DE4691
:1017C00057464E464546E0B589B0804616001F0094
:1017D000129B994614AB1B789A461F236B44002238
:1017E0001A7033E000280AD042461268127B9042F9
:1017F00005D8421E4146C9688A5C934646E0434B81
:10180000434A4021434800F083FD32003B00361B31
:10181000AF41BB4202D804D1B24202D9012676427E
:10182000F717002F12DA3C4B3C4A3F213C4800F0AE
:101830006FFD394B394A3F21394800F069FD0124D9
:101840006442E517002D4EDB26002F0043465B68FF
:10185000EFF3108572B61C6862425441E4B2002C6A
:10186000F9D1BFF35F8F1F236B44049300230393CD
:101870000293139B01934B46009332003B0040467A
:10188000FFF708FD031EADD100229346414649688B
:10189000BFF35F8F00220A6085F31088002B28D0E9
:1018A0001F236B441B78002B02D15A4614020443B9
:1018B000002B20D05346002B1DD013992000C84781
:1018C00004000D0003000B431DD000299DDB00F038
:1018D0002DF90029ADDB24184D41A942AFD8B1D173
:1018E000A042AFD9ABE70C4B0C4A3F210C4800F0AB
:1018F0000FFD01246442200009B03CBC904699468B
:10190000A246AB46F0BD0024F5E7C04634B4001053
:10191000C8B2001040B5001050B3001064B20010FF
:101920006CB30010F0B587B006000F00FEF79BFC0B
:1019300000282AD106246442E517A4197D41BD423E
:1019400002D803D1B44201D900240025002D1FDBA9
:101950000494059500F0EAF800291FDB241A8D4154
:10196000002D21DDFFF714FF002302930193254B87
:101970000093049A059BFFF721FF002831DA30001D
:10198000390000F0DFF807B0F0BD1F4800F05AFD45
:101990001E4B1F4A3F211F4800F0BAFC1B4B1C4A3C
:1019A0003F211C4800F0B4FC002DE8D1002CD9D117
:1019B000E5E7002300E00023002BE0D1164B1A6876
:1019C000EFF3108172B61368002BFCD0BFF35F8F6A
:1019D000114B1B68BFF35F8F00221A6081F31088E0
:1019E00020BF0499059A0D4B5B6A9A42E3D80B48D5
:1019F000806A884203D29A42DBD00123DCE70123CC
:101A0000DAE7C0460911001074B5001050B3001099
:101A100064B200106CB300101013002000400540A9
:101A200070B504000D0000F081F8002910DB020001
:101A30000B00001969418B4202D804D1824202D9BD
:101A400001204042C117002908DBFFF76BFF70BD82
:101A5000054B064A3F21064800F05AFC024B034A58
:101A60003F21034800F054FC50B3001064B2001052
:101A70006CB3001010B5FA2292000023002102F08E
:101A800031FFFFF7CDFF10BD70B5EFF305833F20A9
:101A900018401038EFF3108472B6194B1B68002BF6
:101AA000FBD0BFF35F8F012319008140154A5163BA
:101AB000154A12781500C5402B4214D0114B5D6AAF
:101AC0008300124E9B599D4206D38300104D5B59F3
:101AD0008A430D490A7007E00A4A031D9B00995882
:101AE0009950002300E00023BFF35F8F044A0021D8
:101AF000116084F31088002B00D0984770BDC04659
:101B0000280100D0004005402B13002014130020B2
:101B10006811002010B50100024A0348FFF72AF8B7
:101B200010BDC046F8B5001029130020044B596AB7
:101B300000E01900024B986A5B6A9942F9D170473C
:101B400000400540084B5B6A01E0074B5B6A8B4233
:101B5000FBD301E0044B5B6A8B4203D1024B9B6ACF
:101B60008342F7D37047C0460040054070B504007B
:101B70000D00FFF7DBFF02000B002000290080189A
:101B800059418B4202D804D1824202D901204042FD
:101B9000C117002902DBFFF7D5FF70BD024B034AD6
:101BA0003F21034800F0B4FB50B30010C4B500104F
:101BB0006CB3001070B504000D00EFF3108672B620
:101BC0001B4B1B68002BFBD0BFF35F8F002D1CD07D
:101BD0002000FFF7E3F8174B98420BD019002000C4
:101BE000FFF7E4F801212000FFF7D0F80123A3401C
:101BF000114A1360A400114BE550BFF35F8F0C4BEB
:101C000000221A6086F3108870BDA2000B4B0021E1
:101C1000D1500122A2400A490B7893430B70054929
:101C20002000FFF7EDF800212000FFF7AFF8E4E710
:101C3000280100D0891A0010386005406811002082
:101C40002B130020F0B5DE4600B584B0050014006B
:101C500001921E000293FFF769FF03948E422CD974
:101C6000EFF3108B72B6294B1B68002BFBD0BFF330
:101C70005F8F274A17780124AC40E3B23B431370CF
:101C8000244B5C632A1D92000199D150AA0022497D
:101C9000029850501B6A23421BD11E4B1B6C2342DF
:101CA00011D00020BFF35F8F184B00221A608BF316
:101CB000108804B004BC9346F0BD8E4201D184422A
:101CC000CED80120F5E7154B154AC121154800F083
:101CD0001FFBFFF72BFF8E4214D802D1039B8342D8
:101CE00010D80B4B1B78BB420ED00A4B1C625C63B6
:101CF0001F222A40012393400B4A1360044B1F709C
:101D00000120CFE70020CDE70120CBE7280100D05C
:101D10002B13002000400540141300201CB60010B7
:101D2000DCB5001040B6001080E200E010B5EFF323
:101D3000108472B60A4B1B68002BFBD0BFF35F8F79
:101D400001238340074A136207490A789A430A70BD
:101D5000BFF35F8F024B00221A6084F3108810BD1E
:101D6000280100D0004005402B13002010B50029A9
:101D70001FD0037B99421CD84B005B18033B0468BF
:101D8000A446634400291AD0002A1ED0914222D0D2
:101D9000002A26D0047BA24223D804685000801871
:101DA0000338201881701978002920D041701A70EA
:101DB00010BD104B104A6821104800F0A9FA104BD2
:101DC000104A6F310D4800F0A3FA0F4B0D4A7021F5
:101DD0000A4800F09DFA0D4B0A4A7121074800F0AD
:101DE00097FA044B044A6821044800F091FA1A70EB
:101DF000DEE7C04698B4001080B60010B4B40010FE
:101E0000FCB400108CB6001008B5001014B500101A
:101E100070B506000D00140000290BD0002A12D066
:101E2000806873689847002806D12A002100300096
:101E3000FFF79CFF200070BD220029003000FFF753
:101E400095FF2C00F6E70C00F4E7000010B5002326
:101E5000437301338373037BC3730123027B9A4271
:101E600014D9002B0CD0027B934209D85A00D21807
:101E7000033A01688C4662440133DBB25370EDE7EC
:101E80000B4B0C4A68210C4800F042FA002A09D09A
:101E9000924207D8016853009A18033A8A1800231F
:101EA000537010BD024B034A6821034800F030FA1A
:101EB00098B4001080B60010B4B4001010B50173CF
:101EC00042608360FFF7C2FF10BD000070B50400E0
:101ED000002901D1080070BD002934D0037B99424C
:101EE00031D84B005B18033B0268944663445A7830
:101EF000002AEFD02DD0037B9A422AD853009B189A
:101F0000033B0068844663445D78002058700029D4
:101F100025D0237B994222D84B005B18033B2068D5
:101F200084466344002058702000FFF771FF0600CC
:101F300029002000FFF7CAFF020031002000FFF750
:101F400067FF0100C6E7094B094A6821094800F00C
:101F5000DFF9064B064A6821064800F0D9F9034B21
:101F6000034A6821034800F0D3F9C04698B4001032
:101F700080B60010B4B4001070B505000C00160057
:101F8000002928D02DD0037B99422AD84B005B181A
:101F9000033B0268944663445A78002A27D19A7812
:101FA000002A2AD11978FFF791FF0300002E03D0F1
:101FB000EA7B002A27D1EC73002B37D1002C49D0C3
:101FC0002B7B9C4246D82A6863001C19033C1419D9
:101FD0000023637070BD224B224A3821224800F052
:101FE00097F9224B224A6821224800F091F9224BAE
:101FF0001C4A3A211C4800F08BF9204B194A3B211E
:10200000194800F085F9002A0AD0297B8A4207D8AE
:1020100051008A18033A29688C4662445470CAE712
:10202000124B134A6821134800F072F9002B0BD0B1
:102030002A7B934208D843001B18033B2A68944626
:10204000634400229A70B9E7084B094A682109489D
:1020500000F05EF9054B064A6821064800F058F981
:10206000ECB60010A0B60010F4B6001098B4001042
:1020700080B60010B4B4001028B7001050B700109C
:1020800070B504000A00457B2900FFF775FF6073F7
:10209000280070BD10B50400002966D0437B8B4238
:1020A0000ED0002911D0037B99420ED84B005B184B
:1020B000033B0268D0188378002B0CD1002055E038
:1020C0000121FFF7DDFF012050E0294B294A68215B
:1020D000294800F01DF9002B1FD0227B93421CD809
:1020E0005A00D318033B2268D21813788B421AD0B7
:1020F000002B1BD0227B934218D85A00D318033BE5
:102100002268D21853788B4216D0002BF0D11B4B8B
:102110001B4A67211B4800F0FBF8154B154A682144
:10212000154800F0F5F84378137007E0104B114A9A
:102130006821114800F0ECF8437853700023837055
:10214000437001222000FFF717FF0200617B8142EC
:1021500005D02000FFF75CFE6073012006E00A4B0B
:10216000074A6D21074800F0D3F8002010BDC04693
:1021700098B4001080B60010B4B400108CB10010F8
:10218000B4B60010F4B60010CCB6001010B50400C0
:10219000FEF724FD01002000FEF78EFFFF232371D0
:1021A000BFF35F8F10BD10B50400FEF717FD0100EF
:1021B0002000FEF781FFFF23237100236371BFF32B
:1021C0005F8F10BD70B505000C00062000F050FABE
:1021D000C000210001F074FCC60908D00E4B9E42DD
:1021E00017D87F23184001303400460800E001244E
:1021F0006C62AE622C3580239B011D4300232B6053
:10220000062000F035FA8000A101891901F058FC80
:1022100070BD0026014CEBE7FEFF0000FFFF000051
:1022200000290AD180225200054B9C46604443425B
:1022300058414000034BC25270470A22F4E7C0469F
:102240000080FCBFB014002070B505000C00062013
:1022500000F00EFA00282DD0174B9D4227D0802287
:10226000D203164B1A60164B1A60164B9B6811006E
:102270009943FAD100212800FFF7D2FF210028005E
:10228000FFF7A0FF2C002C34E96A60224A406E213F
:10229000114080225201224311600B4B2B6380239B
:1022A0009B01234310221A600323AB6470BD80227C
:1022B0001204D6E70020F9E70080034000E0004068
:1022C00000F0004000C000400103000000BEFDE738
:1022D00003000A4A1268002A08D0084A1068C31886
:1022E000074A9A4206D3054A13607047034A0549D4
:1022F0001160F2E701204042F7E7C046E8120020F3
:1023000000000420B816002010B5FFF7DFFF000022
:1023100010B582B00C001900002A0CD0084B002A1E
:102320000BD00192009323000200064802F07AFDD0
:102330000120FFF7CBFF044BF1E7034AF1E7C0466A
:1023400008B8001018B80010B4AF001070B52B4BCF
:102350002B4A1A602B4B2C4A1A602C4B9A682A4B3A
:102360009343FAD12A4C01E008CC9847294B9C4270
:10237000FAD300F0FDF8234B274A1A60234B9B68E1
:10238000DB43DB01FAD1254B40229A675A671A6773
:10239000DA66234C09E0234B234A83212348FFF7C5
:1023A000B7FF2000FFF7F2FE0834214B9C4209D210
:1023B0002368002BF5D0012BEDD12000FFF7F3FEB1
:1023C0000834F2E71B4CA1681B4DC022280002F024
:1023D00085FBA560FDF747FF002800D000BEFEF793
:1023E000EDFBFEF75BFEFFF7B7F9144C01E008CCFC
:1023F0009847134B9C42FAD370BDC04600E00040A2
:10240000BFCDFBFE00F00040FE7F3C0000C000405E
:102410000010002010100020FFFFFF0100F001401D
:10242000F80F002068B8001048B8001088B80010F5
:102430000010002000ED00E000000020101000203F
:10244000181000200FB400B583B0084802F0B8FCA3
:10245000049B002B07D005A90191180002F0C0FCD5
:10246000034802F0ADFC0120FFF730FF58B8001020
:10247000E4AE0010F0B5DE46574680B583B00700E5
:102480000E0092460A9A93424CD3190E01911B02F8
:10249000180000930A9A002301F054FB05007B000A
:1024A000DB199C002D4B9C4664446368834200D238
:1024B00060603B1FDBB29B46012B39D9C0239B01D7
:1024C0002343802212011A60BB00254A9958002933
:1024D00005D0506901F0F4FA01300138FDD15346BE
:1024E0005B0122685340E0221340802252012243C4
:1024F00013605B46012B26D980239B012343802256
:1025000012011A6065602A0000230098019901F009
:1025100019FBBF00124BF850012003B00CBC9246CF
:102520009B46F0BD0F4B104A2D211048FFF7F0FEDF
:10253000012EC3D1C0239B01234303221A60A36849
:10254000DB07FCD5CBE72168714003230B40136008
:10255000A3680122B2401A42FAD0CDE700800040C1
:1025600078120020D8B80010C8B80010ECB80010DD
:1025700030B583B00C2000F021F9FEF715FB0028E0
:102580000DD0002304E099002D4A2E4888500133D5
:10259000092BF8D92A4B2C4A5A6203B030BD2B4B79
:1025A00000229A6700F078F9294B01221A60274B24
:1025B0005B6C012BFBD1274B03221A60234B9B6BD7
:1025C000012BFBD1013300930433234A012123481B
:1025D00000F054F805230093214A0121214800F01E
:1025E0004DF8214B0093002202210420FFF742FF07
:1025F0001E4D00952B00002201210520FFF73AFF18
:10260000104C00942300002200210720FFF732FF26
:1026100000942300002200210820FFF72BFF0A4B23
:1026200000932300002200210920FFF723FF0095DB
:102630002B00002200210620FFF71CFFADE7C0465B
:1026400078120020006CDC021BB700000080004004
:102650003CB0004030B00040002F6859008002407C
:10266000008C864700C00240001BB700405973072A
:102670008000014BC058704778120020F0B583B03D
:102680000400019115001F000C2001F019FA06004A
:102690003D4BEA183D4B9A4242D84201121A93012F
:1026A0009B1ADB001B189901280001F009FA0200AF
:1026B000103A98235B009A4238D87B1E062B3BD8F1
:1026C000089B013B062B37D8089B9F423AD32B0926
:1026D000B3423DD33F04089B1E033E432368002BB7
:1026E0003CDB2B4B9C424BD080214901294B19608C
:1026F000294B1960294A92680B009343FAD1019B38
:102700002360A060221DC0239B01134321221A6075
:102710002268002AFCDAE66008221A6003B0F0BDE5
:102720001F4B204A11212048FFF7F2FD1F4B1D4A85
:1027300019211D48FFF7ECFD1D4B1A4A1C211A48B0
:10274000FFF7E6FD1B4B174A22211748FFF7E0FD74
:10275000194B144A25211448FFF7DAFD22683F235C
:102760001340019A9342BCD1A3681B051B0D834201
:10277000B7D1E368EE22D2021340B342B1D1CDE724
:1027800080218901B2E7C04680E84BD380F8A932A6
:1027900000C0024000E0004000F0004000C00040E7
:1027A00038B900102CB9001098B90010D4B9001035
:1027B000F0B900103CBA001054BA001080239B00FE
:1027C0001843014BD862704700800540024B1A68DD
:1027D000024B5A607047C046EC1200200080054052
:1027E00010B5164B8022D2051A60154B154A1A6097
:1027F000002918D0144BE022D2041A60002817D008
:1028000043011B1A9B0018180301104A1360104A59
:10281000934201D90D4B1A60FFF7D8FF0A4B802273
:10282000D2051A6010BD054BE022D2041A60E5E71C
:10283000054B802212061A60F4E7C04600B005403E
:1028400008200140FCFF010000A00540EC12002020
:10285000FFFFFF0010B50C4B8024E4051C6000282E
:1028600007D10A4B0021D96100211000FFF7B8FF02
:1028700010BD01230343054C0548E061054858405D
:1028800020626162A362EFE700B00540008005406E
:10289000D3C007B02D3FF84F064BAA2212011A6091
:1028A0002F22DA60044B054A1A60024B5B68002B4A
:1028B000FBDA7047004002400060024000B0FA00BE
:1028C0009A4200D288547047704710B5002802D051
:1028D0000B684968984710BD002307E09A00D31899
:1028E0005A004B1C03600B789B18303B01680A7838
:1028F000303AD2B2092AF1D918007047F0B5D6465D
:102900004F464646C0B582B00500009190460193FF
:102910000A9B99460B9C0C9E0D9B9B0712D04E4622
:102920000C9B994618E0541C019B00992020A84755
:1029300001372200B742F6D354460C964E460C9B04
:10294000994609E02700A246F4E7013C571C305D98
:10295000019B0099A8473A00002CF6D14E460D9BEA
:102960009B070AD5474605E0541C019B009920208F
:10297000A8472200D31BB342F6D3100002B01CBC00
:1029800090469946A246F0BDF0B5CE46474680B582
:1029900087B0049205930E9E0F9C10AD2B7899463C
:1029A000129F139B149DAA071CD4002B0CD0EA077E
:1029B0000AD54A46002A02D10C322A4204D0013BF1
:1029C00002E0302232550134BC4205D21F2CF8D926
:1029D00002E0302232550134EA0703D59C4201D28D
:1029E0001F2CF6D9EA0615D56A0505D4002C03D0AC
:1029F000BC421CD09C421AD0119A102A23D0119AA2
:102A0000102A28D0119A022A2DD01F2C02D8302744
:102A1000375501341F2C2FD84A46002A29D16A077E
:102A200037D42A0728D520273755013424E0671EDC
:102A3000002F06D0119A102A01D03C00DCE7023C9E
:102A4000DAE73C00D8E7AA06D9D41F2CD7D87827D4
:102A500037550134D9E7AA06D4D51F2CD2D8582728
:102A600037550134D1E71F2CCFD8622737550134B1
:102A7000CBE72D2737550134039502930194009637
:102A8000059B049AFFF73AFF07B00CBC90469946A5
:102A9000F0BD2B2737550134EEE7F0B5C64600B53B
:102AA00094B0089009910A920B931AAB10CB1B7843
:102AB00098461F9D002C01D110239D438027FF00C5
:102AC0002F4016D0002C20D0002712E0AA061AD5DD
:102AD0004121C918C9B20A39C9B27E1C0CABD955FB
:102AE0001C99200000F0ECFF041E0FD01F2E0DD803
:102AF00037001C99200000F0E3FFCBB2092BE5D88A
:102B00003033D9B2E9E76121E3E7002606951E9B41
:102B100005931D9B04931C9B0393434602930196CC
:102B20000CAB00930B9B0A9A09990898FFF72CFFAE
:102B300014B004BC9046F0BDF0B5D6464F4680B503
:102B400099B00C900D910E920F93209C219D22AB79
:102B50001B789A46249B0A93259B0B93289B9946A6
:102B600023002B4303D110334A469A4391468026D3
:102B7000F6004B461E4007D023002B4331D00026E1
:102B800037004E4609941BE037004E46099417E083
:102B9000B20621D54122D218D2B20A3AD2B27C1C56
:102BA00010ABDA550A9A0B9B0998290000F0CAFF6E
:102BB00009900D000B00034315D01F2C0ED82700E1
:102BC0000A9A0B9B0998290000F0BCFFD3B2092B8D
:102BD000DED83033DAB2E2E76122DCE72700B14623
:102BE00003E0002701E02700B1464B460693279BF0
:102BF0000593269B04930A9B0393534602930197E4
:102C000010AB00930F9B0E9A0D990C98FFF7BCFE2A
:102C100019B00CBC91469A46F0BD0000F0B5DE46F6
:102C200057464646C0B592B0089006910992079360
:102C30001A9C1B9D22002B002000290001F019FA8C
:102C4000002800D0EAE001225242D34B20002900A4
:102C500001F00AFA002800D0E0E001225242CF4BF6
:102C60002000290001F0EAF9002800D0D6E0002277
:102C700000232000290001F0E1F9002800D0E3E062
:102C800022002B000A920B938023DB001E9A1A402D
:102C90009246131E01D106331C930A980B99020029
:102CA0000B000C920D9303000A00024300D1D3E005
:102CB0000A00100D4005400DB94EB44660441203A1
:102CC000120B1E00B74B13431F0001F0E5F9B64A83
:102CD000B64B01F068F9B64AB64B01F03DF90C90DD
:102CE0000D910022B44B3000390001F02CF9B34AA9
:102CF000B34B01F058F902000B000C980D9901F04C
:102D00002BF901F0E1F9804601F0C6F9AD4AAE4B6E
:102D10000C900D9101F047F90022AC4B01F01CF929
:102D200001F0D2F90700AA4AAA4B0C980D9901F0BC
:102D30003AF90C900D91380001F0AEF9A64AA74B74
:102D400001F031F902000B000C980D9901F0FBF82D
:102D500002000B001090119101F025F90E900F91D7
:102D60009F4BFB181B050D9300230C93109E119F86
:102D700032003B003000390001F0EEF81090119164
:102D800032003B0000208021C90501F0DCF806007C
:102D90000F000022934B0E980F9901F0E6F80022E5
:102DA000914B01F0D9F802000B000E980F9901F039
:102DB000DCF800228D4B01F0CFF802000B000E98DA
:102DC0000F9901F0D2F802000B003000390001F039
:102DD000C3F802000B001098119901F0C6F8002208
:102DE000704B01F0B9F80C9A0D9B01F0DCF806006D
:102DF0000F000C900D910A9A0B9B01F035F90028F9
:102E00002CD001235B429C46E0440022764B3000EC
:102E1000390001F0AAF80C900D911FE01E9B04935D
:102E20001D9B03931C9B029322002B000092019395
:102E3000079B099A0699089800F002F912B01CBC89
:102E400090469A46A346F0BD0A9480231B069C46F2
:102E5000AC4463460B9317E700239846434663331D
:102E6000C62B22D804271E9B1B052AD50C9A0D9B26
:102E70001900114311D05E4A5E4B0A980B9901F07C
:102E8000EBF8002800D1BBE000225B4B0A980B99BD
:102E900001F0D4F8002800D1B2E01C9B434506DDC8
:102EA00042469E1A731E1C9303E00527DBE70023AE
:102EB0001C938023DB001E9A1A431E9200270023D6
:102EC00098461D9B9F4200D3A6E0DB1B9B46022336
:102ED0001E9A1A40924603D0002F01D000239B4631
:102EE0004346002B07D00C9A0D9B0A980B9901F0D2
:102EF0003CF80A900B91002200232000290001F0E9
:102F00009DF8002800D08AE03C4B1E9A13400493A1
:102F10005B4603931C9B02930A9B0B9C00930194BA
:102F2000079B099A0699089800F08AF8002F00D1AB
:102F300084E71E9B9B0600D47DE04524451C079B2F
:102F4000020006992000089CA0474046C21781183D
:102F50005140C30F7A1E052005900492002203926F
:102F60000A32029201930091079B2A0006992000E1
:102F7000FFF793FD5346002B00D15FE70200089D49
:102F8000099C131B1D998B4257D2561C079B06990F
:102F90002020A8473200F4E7FFFFEF7FFFFFEFFF9D
:102FA00001FCFFFF0000F03FFB799F501344D33F2B
:102FB000B3C8608B288AC63F0000F83F61436F6347
:102FC000A787D23F71A379094F930A400000E03FE1
:102FD0001655B5BBB16B0240EF39FAFE422EE63F03
:102FE000FF03000000002C400000244000001840B7
:102FF0002D431CEBE2361A3F80842E41FFF7FFFF82
:103000001C9B002B00D15CE75346002B00D158E7F6
:103010001C9B013B1C9354E700239B4657E70A9CEB
:103020000B9D2200290080200006844661440B008D
:103030000A920B9368E7652480E71000FEE6C0461D
:10304000F0B5D646474680B597B0069007910892EE
:103050000993209F1E9A1F9B1000190001F009F888
:1030600000282AD101225242BB4B1E981F9900F022
:10307000E5FF002830D101225242B84B1E981F991B
:1030800000F0F2FF00283AD00423229A134032D0F5
:10309000B34A002B31D10323229903912199029144
:1030A00001930092099B089A07990698FFF726FC5E
:1030B00017B00CBC90469A46F0BD229B0393219B0F
:1030C000029303230193A74B0093099B089A079946
:1030D0000698FFF713FCEBE7229B0393219B0293D7
:1030E00004230193A04B0093099B089A0799069823
:1030F000FFF704FCDCE79D4ACBE70423CCE7002282
:103100009B4B1E981F9900F0AFFF002817D100229B
:10311000984B1E981F9900F091FF00280FD10022B4
:1031200000231E981F9900F089FF002817D1002363
:103130009A46229B5B0500D47DE000261FE0229B7F
:103140000493219B039302971E9B1F9C0093019461
:10315000099B089A07990698FFF760FDA8E71E9A51
:103160001F9B0020002100F0EEFE1E901F91012306
:103170009A46DEE70EAB30229A55013F01361F2EEC
:1031800001D8092FF6D81E981F9900F09DFF040062
:1031900000F082FF02000B001E981F9900F0D3FE82
:1031A000FA00754B9B181A685B680C920D9300F03F
:1031B000FAFE0A900B9100F0ABFF050000F068FFEB
:1031C00002000B000A980B9900F0BDFE0A900B91CB
:1031D00000226A4B00F048FF00282ED0013528005D
:1031E00000F056FF02000B000C980D9900F02CFF28
:1031F000002801D001340025002F2CD1200000F040
:103200004BFF02000B001E981F9900F09CFE00224D
:103210005A4B0A900B9100F011FF002841D1002277
:10322000564B0A980B9900F01FFF002839D1E3078D
:1032300037D5013435E006277FE700224F4B0A9847
:103240000B9900F0FBFE0028D6D1002D01D0EB0732
:10325000D2D50135D0E70A941F2E10D8013F0A219C
:10326000280000F02DFC741C30310EAB99550A215A
:10327000280000F025FC051E25D02600ECE70A9C5E
:1032800004E00EAA302191551F0001361F2E02D8EE
:103290007B1E002FF5D11F2E03D80EAB2E229A5580
:1032A00001361F2E14D80A21200000F0E1FB751C06
:1032B00030310EAB99550A21200000F0D9FB041ED5
:1032C00005D02E00EDE7A0460A9C4646DEE72E001C
:1032D0000323229A1340012B16D01F2E06D85346E3
:1032E000002B28D00EAB2D229A550136229B03933A
:1032F000219B029301960EAB0093099B089A0799B4
:103300000698FFF7FBFAD3E6219B002B0DD053461E
:10331000002B02D10C33134207D0219B013B219398
:1033200003E00EAB30229A550136219B9E42D4D247
:103330001F2EF6D9D1E7229B5B0704D50EAB2B22BB
:103340009A550136D2E7229B1B07CFD50EAB202220
:103350009A550136CAE7C046FFFFEFFFFFFFEF7F38
:1033600050BC00105CBC001060BC001058BC0010C9
:1033700065CDCD4165CDCDC168BC00100000E03FFA
:10338000F0B5DE4657464E464546E0B595B00600D8
:103390000B9115001393002900D1FCE20027139B29
:1033A0001878002800D1F8E2252809D07C1C2B00D1
:1033B0003A000B99B047139B013313932700EEE7B4
:1033C0000133139300241DE00B00303BDBB2092BCB
:1033D00037D92A293AD000239A46139B1A782E2AE5
:1033E00044D000230C93139A1378683BD9B2122966
:1033F00000D980E08B00D049CB589F4601231C4365
:1034000001321392139A11780B00203BD8B2102886
:10341000DAD88300C948C3589F4602231C430132AF
:103420001392EFE704231C4301321392EAE70823C7
:103430001C4301321392E5E710231C43013213921F
:10344000E0E713A8FFF748FA8246C6E71E9B1A1D5D
:103450001E921B68002B04DB9A46139B01331393C7
:10346000BBE7022214435B429A46F6E78022D20071
:1034700014435A1C13925A781300303BDBB2092BC9
:1034800004D92A2A07D000230C93ACE713A8FFF72E
:1034900023FA0C90A7E71E9B1A1D1E921B68002B97
:1034A00004DB0C93139B013313939CE70023F8E791
:1034B00080235B002343511C139152786C2A01D066
:1034C0001C0018E0C0239B001C430131139112E043
:1034D00080232343511C13915278682A01D01C0089
:1034E00009E0C0231C430131139104E080235B00F9
:1034F0001C4301321392139B18780300253BDAB268
:10350000532A00D93DE293008D4AD3589F46802329
:103510009B001C4301321392EDE780235B001C43A8
:1035200001321392E7E778280AD058283BD06F2859
:103530003CD062283DD010239C43063B9C4601E0D2
:1035400010239C46582837D0692803D0642801D01E
:103550000C229443630501D50122944369282ED09F
:1035600064282CD0A30500D5A5E0E30500D5BFE075
:10357000630600D4D2E01E9A111D1E911168FF222D
:103580000A400594534604930C9B039363460293AD
:103590000023019300922B003A000B993000FFF7B3
:1035A0007CFA07002BE010239C46CBE708239C46BF
:1035B000C8E702239C46C5E720221443C4E7A305BD
:1035C00021D4E30551D4630668D51E9A111D1E91BE
:1035D0001168FF220A40D317D1185940D20F059421
:1035E000534604930C9B039363460293019200910C
:1035F0002B003A000B993000FFF74FFA0700139B9E
:1036000001331393CBE61E9BDA1D07218A43110079
:1036100008311E91116853689846DB171093119377
:10362000109A119B100048400E90190040464140EE
:103630000F910E980F99801A99410E900F91434661
:10364000DA0F0894534607930C9B06936346049342
:10365000002305930292009001912B003A000B99F0
:103660003000FFF769FA0700C9E71E9A111D1E9185
:103670001268D317D1185940D20F059453460493BA
:103680000C9B039363460293019200912B003A0036
:103690000B993000FFF701FA0700B0E7230605D5C4
:1036A0001E9A111D1E910023D25E94E71E9A111DD1
:1036B0001E9112688FE71E9BDA1D07218A431100B5
:1036C00008311E91536812680092019300220894F9
:1036D000534607930C9B069363460493059202920C
:1036E0002B003A000B993000FFF726FA070086E717
:1036F0001E9A111D1E91136800930594534604935E
:103700000C9B039363460293002301932B003A0022
:103710000B993000FFF7C1F9070070E7230606D5C3
:103720001E9A111D1E9112681204120C29E71E9A8E
:10373000111D1E91126824E770BA0010BCBA001067
:1037400000BB001046281AD01E9B07330722934364
:103750001A0008321E921A685B6800920193049462
:10376000534603930C9B02932B003A000B993000B5
:10377000FFF766FC0700139B013313930FE620232A
:103780001C43E1E7672801D0472802D180231B01B1
:103790001C43452801D0472801D120231C431E9BF0
:1037A0000733072293431A0008321E921A685B6897
:1037B000009201930494534603930C9B02932B00B5
:1037C0003A000B993000FFF729FA0700139B0133E9
:1037D0001393E4E502232340994622D0012398461F
:1037E0001E9B1A1D1E927C1C18782B003A000B9908
:1037F000B0474B46002B1AD1139B0133139327007C
:10380000CDE5571C0C9B0B992020A84723003A00BC
:103810005C1C9E42F5D8B2461700A0462E000C9DB7
:10382000DEE701233A000C9535005646F0E722000A
:1038300043460C953500564606E0571C0C9B0B99E9
:103840002020A84723003A005C1C9E42F5D81400B3
:103850002E000C9DD0E71E9B1A1D1E921B689B46D6
:103860000C9B002B21D1012252425B4601E0013327
:103870000A001978002902D0511E002AF7D15A46B1
:103880009B1A98468023DB002340994603D00C9B6B
:10389000984500D9984602232340129307D03A0056
:1038A0005C4637004E460D951FE00C9ADDE73A0066
:1038B0004346370056460D9506E0551C0D9B0B9967
:1038C0002020B84723002A005C1C9E42F5D8B2464F
:1038D0003E00A0465C4637004E4606E00C9301349D
:1038E000551C0D9B0B99B8472A002078002805D05D
:1038F000002EF4D00C994B1E0029EFD13E0017008A
:103900000D9D129B002B03D1139B0133139346E5AE
:1039100043460C953500564606E0571C0C9B0B9908
:103920002020A84723003A005C1C9E42F5D81700CF
:103930002E000C9DE8E7212323431E9A111D1E91A2
:10394000126800920593082304930C9B03931023A1
:103950000293002301932B003A000B993000FFF7EC
:103960009CF80700139B0133139318E57C1C2B0074
:103970003A000B992520B047139B0133139327007E
:103980000DE57C1C2B003A000B99B047139B0133CB
:103990001393270003E5094E00E5AF420CD36A1EDE
:1039A0002B000B990020B047380015B03CBC904666
:1039B0009946A246AB46F0BD3A00F1E7C92800108F
:1039C0000EB410B585B0010007AC08CC03940122F9
:1039D000009452420348FFF7D3FC05B010BC08BC6A
:1039E00003B01847C128001000B585B002900391BC
:1039F0000121009313004A4202A90248FFF7C0FCCC
:103A000005B000BDCB28001001480421014B184728
:103A100010060020393A001010B5010018231B8849
:103A200014221088984710BD10B5010018231B8878
:103A300016221088984710BDF0B5C64600B507009D
:103A40000E0000250123984600E00135B5420AD258
:103A5000AC003C192068FFF7DFFF20600028F4D19C
:103A600000239846F1E7404604BC9046F0BD0000B4
:103A7000124A936F9B0815D29066D166002905D033
:103A8000FFE7FFE7FFE7516F106F704704B5802134
:103A90000906C2175140002800D0C84307F064F956
:103AA000002104BDF0B5146E556E576F166FFFF709
:103AB000E3FF1466556657671667F0BD000000D037
:103AC000114A936F9B0813D210665166002905D0E6
:103AD000FFE7FFE7FFE7516F106F704704B500285D
:103AE00001D00020C04307F03FF9002104BDC046CB
:103AF000F0B5146E556E576F166FFFF7E5FF14663D
:103B0000556657671667F0BD000000D094464E4AD0
:103B1000926F9208624601D230E0C046F0B54A4E3C
:103B2000B56F6D08FCD3346E756E776F366F00F02D
:103B300025F89446444A14665566576716676246E8
:103B4000F0BDC0469446404A926F9208624601D248
:103B500058E0C046F0B53C4EB56F6D08FCD3346EEE
:103B6000756E776F366F00F04DF89446364A1466DE
:103B70005566576716676246F0BDC046002B24DBCA
:103B800011D000293EDA00B5C943404200D10131CD
:103B900000F038F8C943404200D10131DB435242C2
:103BA00000D1013300BD002AEBD1002801D100294A
:103BB00005D00020C90FC90701D1C043410800B595
:103BC00007F0C2F80022002300BD00B500290ADB7F
:103BD000DB43524200D1013300F014F8C9434042A4
:103BE00000D1013100BDC943404200D10131DB4366
:103BF000524200D1013300F005F8DB43524200D1BC
:103C0000013300BD002923D1002B18D1002A0CD08C
:103C1000BC460D4F38667A6600210023FFE7FFE7B8
:103C2000FFE77A6F386F67467047002801D0074872
:103C3000010000B507F088F80022002300BD020053
:103C40000B00002000217047000000D0FFFFFFFFA5
:103C5000002B00D0BFE0130C28D1002AE7D080B49D
:103C6000114F39667A66FFE7FFE730B4040C7B6FCB
:103C7000396F1B0423433B667A66FFE7FFE7FFE7E4
:103C8000C04684B27B6F3D6F1B0423433B667A665C
:103C9000FFE7FFE7C04600232C042D0C7A6F386F36
:103CA00000196941B0BC7047000000D0F0B59446DF
:103CB0000025140E01D112020835140F01D1120192
:103CC0000435940F01D192000235D40F01D1520076
:103CD0000135D40B0134254F7C66254C3C660E0C17
:103CE00093B2FFE7FFE7FFE73C6F6643360C7703CD
:103CF000BE467343DF0B5B04C01AB941130C734318
:103D0000DB18C91ACE086643360CB64493B2734327
:103D10001F0F1B01C01AB941130C73431F0B1B0566
:103D2000C01AB941860D8F023E436643360C092DF9
:103D300024DB520A7243801A7703460A6643360C24
:103D400016235B1BDE40DF40BF1964466643821BBF
:103D50007046043506330100D940A840C01900D38D
:103D60000131A24206D20023F0BD0000000000D0C5
:103D7000FFFFFFFF121B0130F3D3F1E709277F1B81
:103D8000FE406446A2B27243801A00D20139220C6E
:103D90007243130C1204821A99410B0070460435C9
:103DA00013370100F940A840801900D30131002BDE
:103DB00002D1A2420AD2F0BD013000D30131121B60
:103DC000FAD2013BF8D1A24200D2F0BD013000D3BB
:103DD0000131121BF7E7F0B51C0C00D080E00CB4E9
:103DE00000251C0A04D11B02160E334312020835AB
:103DF0001C0B04D11B01160F3343120104359C0B1D
:103E000004D19B00960F334392000235DC0B02D1A4
:103E100092185B4101351C00971864410134464FEC
:103E20007C66464C3C660E0CFFE7FFE7FFE7C046AA
:103E30003C6F6643360C7703BE4697B27743C01B90
:103E400000D20139C01B00D201399FB27743C91B90
:103E5000C91B170C77437E04FF0B801BB941CE08AA
:103E60006643360C0C2D33DBB644120B1F053A4368
:103E70001B0B97B27743C01B00D201399FB2774327
:103E8000C91B170C77433E043F0C801BB941860DBC
:103E90008F023E43664329277F1BFE400C3D774639
:103EA000AF40BF1930BCA2B2ABB272437343801AA9
:103EB0009941220C7243130C1204801A994102009A
:103EC0000B000137001BA941F9D2781E0021F0BD7B
:103ED0000C277F1BFE4077467F0BAF40FF19E0E7C2
:103EE00000245D1C07D0144F7D663966FFE7FFE7AD
:103EF000FFE7FFE73C6F95B29EB265436643401B08
:103F0000B141150C1E0C6543664336042F0C3E432D
:103F10002D04401BB141994204D202000B00200045
:103F20000021F0BD01D19042F7D3801A99410134AC
:103F30009942F2D3F6E70000000000D0FFFFFFFF38
:103F400048404140484018B41B4B5B68FC46019315
:103F500008BD04DFB342001018B4174B1B68FC46C1
:103F6000019308BD00DFBD4200109446134A926FD2
:103F7000920809D2624618B40F4BDB68FC460193E5
:103F800008BD0CDF754500100C4AF0B5146E556E77
:103F9000576F166F6246FFF7EEFF084A14665566C4
:103FA00057671667F0BD18B4034B9B68FC46019336
:103FB00008BD08DF19440010B4140020000000D030
:103FC000FFB550404240504059404B40594000E0FE
:103FD000FFB5154F4C00640D03D0BC4204D10C0357
:103FE00014D80020090D09055C00640D03D0BC4203
:103FF00004D11C030AD800221B0D1B0501264B40CF
:1040000009D44B4003D58B4200D18242FFBD994277
:10401000FCD19042FFBD0B43DB1803431343F5D0A3
:10402000C9434918FFBD0000FF07000000B5FFF7B6
:10403000CFFF01D0002000BD012000BD00B5FFF77B
:10404000C7FF804100BDC04600B5FFF7C1FF01D9E1
:10405000002000BD012000BD00B5FFF7B1FF01D970
:10406000002000BD012000BD00B5FFF7A9FF804181
:1040700000BD012040054A00121804D85A00121849
:1040800001D80020704701207047002070470000D1
:104090000021002805D17047C1174840401AFAD0C6
:1040A000C90713B5064B1B6898470CBC441CA240BB
:1040B0001005120B0349091B09051943114310BDD3
:1040C0000C1300201F04000010B54C00620D80236B
:1040D000D218DB00D21A5B057E2A10DD9E3A13DA75
:1040E000CC170903490819435242D14064000134F6
:1040F0001532202A05DAD0400843604310BD002065
:1041000010BD0846604310BDC80FC018013810BD6F
:1041100018B4044B5B6AFC46019308BD24DF2547B5
:1041200000100000B414002018B4044BDB6DFC46F2
:10413000019308BD5CDF314800100000B41400207A
:10414000C94211D300B549004908002200F018F80F
:10415000002904D4002240428A41114600BD80213A
:104160000906002000BD000018B4044BDB6EFC46BD
:10417000019308BD6CDF334700100000B414002029
:1041800018B4044B9B6FFC46019308BD78DF4F4782
:1041900000100000B414002018B4044BDB6FFC4680
:1041A000019308BD7CDFBD4700100000B41400205F
:1041B00070B513231C78012C14D0012C14DC022CB4
:1041C00002DC1F4A1F4B9A641F48FFF725FC1F4B58
:1041D000186070BD99001A481A4A885001331F2B85
:1041E000F8D9EAE70023FAE71948FFF71DFC0500B4
:1041F0001848FFF719FC023803789B007F2B19DD64
:10420000802229000F4800F069FC022CD7D1124B04
:104210001A88B5231B029A4209D1104B1A88104BF9
:104220009A4204D10F4B1A880F4B9A42C7D00020F4
:10423000FEF708F90D4B0E4A32210E48FEF768F8DA
:1042400079420010B41400204C3300000C130020FD
:10425000534400005346000054380000D838000092
:10426000494600009C38000059460000B8BC0010C8
:104270005CBD001018BD001007B56046002800D1D5
:1042800000BE01880A0A0230DF2AFAD1C9B28208C8
:1042900004D3028840880004104300E00068024A0A
:1042A0005050039007BD0000B41400200FB403BCAD
:1042B0000CBCF0B50124E407634000E0F0B50C0D40
:1042C000CF0F661E3605891B640503D3C9434042E0
:1042D00000D30131640D03D0661CF60A07D0E41B3D
:1042E00000207F00791C89078912803C24031D0D62
:1042F000DF0F6E1E36059B1B6D0503D3DB43524259
:1043000000D301336D0D03D06E1CF60A07D0ED1BF0
:1043100000227F007B1C9B079B12803D2D032F1BDF
:10432000661B58D4A446202E46DA20371400BC4021
:104330001D00BD40F24033412A4380185941CB0F44
:1043400005D0C943C04300226442504151416246F6
:104350004D0D28D10D0D07D100281FD02419404143
:104360004941013A0D0DF9D0640006D3013000D364
:104370000131002C01D140084000013A0BD4941CBB
:10438000E40A04D112051144DB071944F0BDD90732
:10439000204B194300E0D9070020F0BD0029DDD1F2
:1043A000002CDBD1F0BD0132C6074008CD07284301
:1043B0004908002EE1D0D9E73C2E29DA203E4037CB
:1043C0001400BC4000D00124F24014431A00BB404A
:1043D0001C43D317ACE7AC46202F08DA2036040084
:1043E000B4400D00B540F84039412843A5E73C2FC3
:1043F0000CDA203F40360400B44000D00124F840DD
:1044000004430800B1400C43C117EAE7100019004B
:10441000002494E70000F07FF0B50C0D661E360511
:10442000891BE60A6405640D02D0651CED0A04D000
:10443000002001210905803C2403A4461C0D671EB1
:104440003F05DB1BE70A6405640D02D0651CED0A1D
:1044500004D0002201231B05803C240377406444E0
:1044600097B484B296B27443070C7E43150C6F4325
:1044700080B26843361802D3012000043F1830048C
:10448000350C00197D41844688B29AB250430C0C19
:1044900062431F0C7C438EB27E43921902D30126E5
:1044A0003604A4191604170C3618674101BC81B2F2
:1044B0009AB25143040C62431B0C5C4380B25843D4
:1044C000121802D30120000424181004130C401801
:1044D00063412D185E410020474106BC88B293B26B
:1044E00058430C0C6343120C544389B251435B187C
:1044F00002D301210904641819041A0C0918624135
:104500006D1856410020474118BCF902720D114345
:10451000F0026A0D1043ED020A0D03D16D194041FE
:104520004941013B124E9B1B7600B3420ED26D00F7
:1045300007D30130002671416646354301D140085A
:1045400040001B05C918E4072144F0BD0BDA013314
:1045500006D1013004D101314F0D01D04908F2E7F5
:10456000E1070020F0BD013631050020EBE7000037
:10457000FF030000F0B51C0D671E3F05DB1BE70ABB
:104580006405640D02D0661CF60A04D000220123E3
:104590001B05803C2403D0252D060026F6432E66FD
:1045A0001E096E66CE0FF619B44649004F0D02D0B3
:1045B0007E1CF60A03D000200021403F3F033E1B33
:1045C000B600B444013F7F05C91B49082E6F013670
:1045D00076089C02950D25437543ED137543AD1385
:1045E00001356D10F603761B0CB4CC02450D2C433F
:1045F000A2B2B3B25A43270C7B43350C6F43A4B22B
:104600006C431B1902D3012424043F191C041D0C04
:10461000A4187D4124196D41009A91B2ACB2614356
:10462000170C7C432B0C5F4392B25A43A41802D35D
:1046300001221204BF182204230C52187B41019C52
:104640006C431B19520ED9010A434401A01A81B2CE
:10465000B2B2514303145A43360C734387B27743C3
:10466000D617D21900277E4136049B191704160C61
:104670007F185E417316ED18F301002680337541F3
:10468000A90F06D16400690AE8055B0A184309D23C
:104690002FE00422944480337541A90AA8059B0A9F
:1046A000184326D3404149412404009A019B0D0040
:1046B0005543641B4343E41A95B286B27543170C05
:1046C0007E43030C5F4392B25A43B61802D30122D1
:1046D0001204BF183204330C52197B4152429C41E0
:1046E000002C02D40022013051414008CA07104377
:1046F000490802B06246D7079210084BD218084BFF
:104700009A4203D212058918C919F0BD0020002A67
:1047100001DC3900F0BD01331905F5E7FD030000A8
:10472000FE070000002200B5203200F010F808005B
:1047300000BD002200B500F00CF8CA179A4200D163
:1047400000BDD8430121C907414000BD00220B151F
:104750000AD410B5944600F0A7F81414013400DA16
:104760000021CB17144C20470020002170476244E1
:10477000343A0CD40C2A07DA04009140904052429B
:104780002032D440214310BDD843D94310BD20323C
:1047900007D40C469440524220321141D04020436D
:1047A00010BD0800C917203203D4524220321041F4
:1047B00010BD1800190010BD6F4700104A00520DBF
:1047C000144BD21A13DDFF2A1EDAD205CB0FDB07FA
:1047D0001A43C300400F0903490A084310435B0012
:1047E00001D301D0013070474308FBD2704702D09B
:1047F000C80FC00770470A0312130132F8D1420FE5
:10480000072AF5D1012200E0FF22C80F000280181C
:10481000C00570478003000000210A00002104E069
:1048200000210A00C11704E00022002306E0C04670
:104830000022CB1758405940C01A994130B5184C46
:10484000A21A002903D1010010D00020203A4C15F3
:1048500012D104D2013A001849414C0DFAD3114C3F
:10486000A24204D212058918DB07C91830BDD24311
:10487000520D00200021F5E703D4013A0018494108
:10488000FBD50B324405C00A4D052843C90A640014
:1048900003D0002460416141E1E7E0D34408F8E738
:1048A00032040000FE0700000A0DCC0F531E1B054A
:1048B000C91A520503D3C943404200D30131520DF6
:1048C00003D0531CDB0A07D0121B00206400611CBC
:1048D00089078912803A1203014BD21A70470000EF
:1048E000FF03000051434343C9188C46110C83B2A7
:1048F0004B4310B4040C614392B280B25043624304
:104900001C041B0C001910BC59411304120CC018D4
:10491000514161447047000007B54840414048405C
:1049200001E0C04607B54200120E03D0FF2A03D1B2
:10493000420218D8C00DC0054A00120E03D0FF2A4B
:1049400003D14A020FD8C90DC9050122414005D43F
:10495000414001D5814207BD884207BD0143491846
:1049600001D0C043001807BD00B5FFF7DBFF01D938
:10497000002000BD012000BD01231B064200D2180B
:1049800004D84A00D21801D800207047012070478F
:1049900070B513231D782A48FFF746F80400012D4F
:1049A00011D0012D09DDA31E1B789B007F2B40DD5C
:1049B00080222100234800F091F82348FFF72CF8CB
:1049C000224B186070BD542201001E4800F086F88A
:1049D0001F4B1A881F4B9A421CD1A7239B011A8890
:1049E0001D4B9A4216D11D4B1A881D4B9A4211D16C
:1049F0001C4B1A8894239B019A420BD11A4B1A889C
:104A00001A4B9A4206D11A4B1A681A4B9A4201D194
:104A1000152307E01848FDF715FD99001748094AC6
:104A2000885001331F2BF8D9144A064B1A62DA61F9
:104A3000B7E7134B134A42211348FDF769FCC04600
:104A400053460000B41500204C3300000C13002026
:104A5000EE290000C40F0000C20D0000962B0000DC
:104A6000C0B50000182B0000CC2A000010B50000D3
:104A7000FC2C000051ED8764B4AF00108D4A00108B
:104A800070BD0010E8BD0010A4BD001007B5604661
:104A9000002800D100BE01880A0A0230DF2AFAD1BC
:104AA000C9B2820804D3028840880004104300E0A1
:104AB0000068024A5050039007BD0000B415002062
:104AC00001480421014B184720060020393A001004
:104AD000014B1B681847000020060020014B5B6853
:104AE000184700002006002010B50C0003681100D4
:104AF0002000984710BD0000F8B506000D00170013
:104B0000437C002B23D10368110028009847F8BD8F
:104B1000337C10E00221174833689847601C013449
:104B2000BC4217DA002CF3DD2B19013B1B780D3B3F
:104B30005A425341DBB22A5D0A2AF0D1002BEED152
:104B4000A042E7DA211A281833689847E2E70024E0
:104B50000020E5E7B84203DA391A28183368984785
:104B6000002FD4DDED19013D2B780D3B5A42534106
:104B70003374CCE760BE001070B505000368002BED
:104B800016D00C4B1C6805E0291D2A682000FFF791
:104B9000B3FFE468002C09D02368002BF9D0064B42
:104BA0001B68002BF0D0A342F3D1EDE700232B606C
:104BB00070BDC046E0120020E412002070B5050070
:104BC0000C000B68802B05D023685A1C2260E41867
:104BD000257170BD0800FFF7CFFFF5E7F0B583B092
:104BE00005000C001700019327E0B368002B04D0E8
:104BF000210028009847002826DCF668002E06D001
:104C0000124B1B68002BF0D0B342F6D1EDE7019AAE
:104C10000F4B5B6A9A4209D80D48806AB8420FD29E
:104C20009A4201D0012302E0002300E00023002B80
:104C300008D101200021FCF799FF064B1E68DDE733
:104C40000123F4E70120404203B0F0BDE41200204C
:104C500000400540E012002010B582B0D0231B06B2
:104C600000241C5701A9074806F086F8002806D141
:104C7000019B9C4203D0034806F08EF8012002B04D
:104C800010BDC046F80F002010B5024806F054F8D9
:104C900010BDC046F80F0020F0B5C64600B584B080
:104CA00001900D0016001C00FFF7D6FF80466B1C1C
:104CB00005D0002C08D0194F194B1C6814E001983E
:104CC00000F068FF0500F4E7164FF5E72A000199A8
:104CD0002000B847002E06D002ABD91D0A230B7066
:104CE00001222000B847E468002C09D02368002B7B
:104CF000F9D00D4B1B68002BE8D0A342F3D1E5E7B8
:104D00004346002B06D1681E8541E8B204B004BCBE
:104D10009046F0BDFFF7B8FFF5E7C046E94A00103E
:104D2000E0120020F94A0010E412002010B50C0037
:104D30001100002806D1054B1A685B682000FFF7B8
:104D40004DFF10BD01204042FBE7C04690B400106B
:104D500070B50D0014000138012807D80023002287
:104D600021002800FFF798FF200070BD012040427D
:104D7000FBE70000094A1368002B0BD0834202D0E6
:104D80000C331A00F7E7002907D1C368136000232A
:104D9000C36002E0002900D010607047E0120020DC
:104DA00010B5064B1C6800E0E468002C04D0636872
:104DB000002BF9D09847F7E710BDC046E01200205D
:104DC00070B5050000F0E6FE04000023012201009A
:104DD0002800FFF761FFFFF7E3FF200070BD000030
:104DE00070B5A2B004000E00FFF736FF0500842264
:104DF000002101A8FFF76CFE3300220001A908483A
:104E0000FEF7F2FD040001A8FFF7B6FEFFF7C8FFAA
:104E1000002D02D1200022B070BDFFF735FFF9E769
:104E2000BD4B00100FB400B583B004A901C90191B6
:104E3000FFF7D6FF03B008BC04B01847F0B583B045
:104E4000002606E06B469C1D25700025002D1DD018
:104E500001368E4222DA124B1A68855D114BD31847
:104E60005C4263415B00104C1B5FAB42EAD16B4676
:104E7000DC1D0D2323700027002FE3D193699B06CF
:104E8000FCD42378136001370134F5E793699B065E
:104E9000FCD42378136001350134D7E703B0F0BDAB
:104EA000241300200080FCBFB0140020F0B583B0B4
:104EB000070000200BE0461C381800246B46DD1D5F
:104EC000002C0FD06B4607331B78037030008842EC
:104ED00004DA094B1A689369DB06ECD5002809D07F
:104EE00003B0F0BD9369DB06FCD413682B7001346A
:104EF0000135E5E70338F3E72413002070B515000A
:104F00001C000B4B1860FDF79FF9002D0ADA002CEE
:104F100003DB02212000FBF76FFE01210548FFF7AC
:104F200029FF70BD02212800FBF766FEEFE7C046AF
:104F3000241300203006002010B5024800F00CF8C1
:104F400010BDC0460413002010B508220149FFF728
:104F5000C5FD10BD0413002030B589B0040004ADB8
:104F60000D2200212800FFF7B3FD0D220021684625
:104F7000FFF7AEFD4B232B700D226946280005F08C
:104F8000D3FE002304E05A1D69468A5CE2540133D3
:104F9000072BF8DD09B030BD10B5514300F028F8FB
:104FA000041E1CD00300083B5A6803239A43043AAA
:104FB000242A16D80300132A0DD9002108330160D2
:104FC00041601B2A07D98160C160242A0DD10300EA
:104FD00001611833416100221A605A609A60200012
:104FE00010BD0021FFF774FDF9E703001033F2E76D
:104FF000F0B557464546DE464E46E0B50D000B354A
:1050000083B00700162D28D8102900D9C1E000F080
:10501000CDFA102518230220CE4EF3181A005C6832
:10502000083A944200D160E1032362689A43130076
:10503000E268A168CA6091600122E31859683800EB
:105040000A435A6000F0B4FA2000083003B03CBCB8
:1050500090469946A246AB46F0BD07239D4300D536
:1050600097E0A94200D994E000F0A0FAF823FF33BA
:105070009D4200D85EE1680A00D18EE0042800D984
:1050800039E138239846A80980443930C100B14E2F
:1050900071180839CC68A14218D0032362689A437A
:1050A0001300521B0F2A00DD1DE1002AC0DA032382
:1050B0009C4608E06246636893435A1B0F2A00DD52
:1050C00011E1002AB4DAE468A142F3D13200346974
:1050D0000832944267D00323616899438A460B00E3
:1050E000491B0F2900DD12E1726132610029A3DA48
:1050F000994A924500D948E1DB08FF3A9910FF3AF6
:105100008A40DB0071689B190A4399687260E3600A
:10511000A1609C60CC60012183109940914248D8E5
:105120000A4205D103239843490004300A42FBD0C8
:1051300003239846C3009946B144CC468246634651
:10514000DC68A44507D1F9E0002A00DB0EE1E46841
:10515000A44500D1F2E04246636893435A1B0F2AEC
:10516000F2DD01208046611905436560A068E568AD
:105170000836C560A8604046F160B16010434860E1
:10518000CE608E603800E25000F012FA2000083045
:105190005CE70C2300203B6058E780213F23890017
:1051A0004020984673E7012172688310994091422C
:1051B000B6D90323B46862689A439046AA4203D3DF
:1051C000531B0F2B00DD80E0644B654A9A469346E3
:1051D0001B681268EB18013200D138E1614A94462D
:1051E00063441B0B1B0300930099380000F0BAFBCB
:1051F00003008146013300D1F6E04346E2188242C3
:1052000000D9EFE051464968009B8C465146634403
:105210004B60824200D14BE159460968013100D10F
:105220005DE149468A1AD3185246536007234A461D
:105230001A40019200D120E108214B4689469B1A71
:1052400099440099484B49449B1A5B1A1B051B0D56
:105250000091380019009B4600F084FB431C00D1EC
:105260005AE1534652465B6849465B4453604A469E
:10527000B260801A0122584410434860B44211D0F1
:1052800041460F2900D827E107200C398143606887
:10529000024005200A4362606218506090600F2946
:1052A00000D941E15246D26A934201D95246D362B3
:1052B0000322B468616891430A005146096B8B422E
:1052C00000D895E051460B6392E001222900134378
:1052D0001143651961603800B5606B6000F068F9D2
:1052E00020000830B2E64046F0E6DC680230A34217
:1052F00000D1EBE698E614286ED9542800D9A9E02D
:105300006E239846280B80446F30C100BFE601230E
:1053100060191D43656070613061C26082601A006F
:1053200053460A4342603800E15000F041F9200042
:1053300008308BE62B00E80808336DE608239B460F
:10534000073BDC449B46DA4443465246134200D0B6
:10535000F5E667E0800A0020FF010000341100201C
:10536000780A00200F100000081000000122E31846
:10537000596838000A435A60E368A268D3609A60AB
:1053800000F016F92000083060E65A0A042A3AD9DB
:10539000142A00D983E05B23984690445C32D20003
:1053A00008235B429C46B2189444634699680323E1
:1053B00099468C4559D04B464A689A43524502D982
:1053C00089688C45F7D1CB6872689C466346A160BA
:1053D000E3609C60CC609EE65B23984680445C3032
:1053E000C10054E6B4427ED00323B46862689A4395
:1053F000531B954202D80F2B00DD66E7380000F002
:10540000D7F8002022E69A0938239846904439328A
:10541000D200C5E74B461A68083B013891469A42CC
:1054200000D098E043460342F4D173688B43736025
:105430004900994200D9BCE6002904D1B9E604220A
:1054400094464900E2440B42F9D0504672E61033CC
:105450000093C9E6AA235B00984233D8DD3B984607
:10546000E80B80447830C10011E6434601229B10CE
:105470009A4073681A437260A8E7009B38004B4457
:1054800000931B055B421B0D19009B4600F06AFA56
:10549000431C00D0E5E6002300989B46E1E6542A31
:1054A00029D81A0B6E23984690446F32D20077E7C2
:1054B000110500D0B0E60120009AB16842440243D1
:1054C0004A60EFE6254B984220D87C239846A80CEA
:1054D00080447D30C100DAE54B465A608EE75B467A
:1054E0004A461A60A2E651464968009B8C465146DE
:1054F00063444B6090E6AA2149008A421CD8DA0B2B
:105500007723984690447832D20049E7FE217E23E3
:1055100089007F209846BAE5009B01989C460023AD
:10552000083860449B469CE621003800083101F0B1
:10553000B1FB53465B68B5E608498A4206D89A0C27
:105540007C23984690447D32D20029E7FE227E23B8
:105550009200984624E773686AE7C0465405000045
:1055600030B5032A1CD903000B439B070FD00478E6
:105570000B789C4217D1012305E0C45C5D1CCB5C19
:105580009C4210D12B009342F7D1002030BD03681C
:105590000C68A342EBD1043A04300431032AF6D854
:1055A000002AE4D1F1E7E01AF0E7C0467047C046B0
:1055B0007047C046F0B5DE46574645464E46E0B514
:1055C000934685B007000D1E00D1A9E02E00083ECD
:1055D000FFF7ECFF736803221C0094435A460B321A
:1055E000B146162A43D8102292460092D34543D89A
:1055F000009A31198846944276DAD44A9168414536
:1056000000D1B6E042465068012102008A43944628
:10561000C444624652680A4200D186E0194230D042
:1056200059463800FFF7E4FC804600281BD00123D0
:1056300072689A43B3180200083A934200D125E1F8
:10564000221F242A00D931E129680300132A00D936
:1056500012E12A0019605168596092689A60290025
:10566000380001F017FB3800FFF7A2FF50E00721D8
:105670008A4392460092B9D50C233B60002398469A
:1056800046E03368F31A01935B6802930323029A9E
:105690009A431300009AE11802919142C0DB0198ED
:1056A000844606008268C3686144D3609A60221F02
:1056B00008368846242A00D9EFE029683300132AE7
:1056C00009D981606B68C3601B2A00D904E11030DE
:1056D0000300A968083519606A68029C5A60AA68C4
:1056E00035009A60019B994653464A46E01A0123C9
:1056F00052681A400F282AD8494622434A60424637
:1057000052681343424653603800FFF751FFA846E2
:10571000404605B03CBC90469946A246AB46F0BD1B
:105720001100FFF765FC8046F2E7032290439446A0
:10573000009A02902018904269DB43464246B046E8
:10574000DB6892688044D36004009A60CCE75446DA
:1057500022434C46494662604246514418434860E1
:1057600052680831134342463800536001F092FA00
:10577000CAE70322504649681030914309199446FC
:10578000814200DB96E0DB0700D549E762463368DB
:10579000F31A01935B689343CA180292904200DDAA
:1057A00078E701988268C3688446D3609A600822CB
:1057B00062449046221F242A00D9B7E02968434654
:1057C000132A09D981606B68C3601B2A00D9B2E033
:1057D0000300A9681033083519606A685A60AA681E
:1057E0009A600198594B020052449A601100524647
:1057F000029B9A1A01231A434A60416800910B40A8
:1058000051460B4343603800FFF7D2FE80E7194250
:1058100000D005E762463368F31A01935B6803938F
:105820009343029AD1180A19009902928A4200DA27
:1058300030E743464246DB6892680198D3609A603D
:105840008268C3680600D3609A60029B84469846CB
:10585000221F0836E044242A1FD829683300132A5F
:1058600000D838E781606B68C3601B2A34D8030016
:10587000A968103308352EE70160696841601B2A6A
:1058800035D82A0008330832A968E3E60322B04677
:105890005B689343E418A04426E72900300001F038
:1058A000B5FB019B3500029C99461DE7290001F0DC
:1058B000ADFBD4E65346254AF318936052460124C3
:1058C000891A21435960736838001C40144374607E
:1058D000FFF76EFEA8461BE7A968019B1961E968FE
:1058E0005961242A0ED0296918331035F3E6A968C6
:1058F0008160E968C160242A0ED02A00103310327A
:105900002969A7E62B69019A93611300696920331D
:10591000D161A9691835DEE62A69010002612A0011
:105920006869183248611833A96993E6290040462E
:1059300001F06CFB55E7A968019B1961E9685961A1
:10594000242A05D029691833103545E7800A00203C
:105950002B69019A9361130069692033D161A969A8
:10596000183539E7002370B5064C050008002360A0
:10597000FCF7AEFC431C00D070BD2368002BFBD0AD
:105980002B60F9E7B41600200EB4812370B59DB0EA
:1059900002AC21AD9B0040CDA3810290069000F0A7
:1059A000F9F80B4B60602362002323636364013BBF
:1059B000E381084B60613200186821002B000195DB
:1059C00000F01AF91DB070BC08BC03B01847C046FF
:1059D0004D5A0010480600200CB48123F0B59DB04C
:1059E00002AC22AD06009B00080080CDA38102918D
:1059F000069100F0CFF80A4B606023620023236316
:105A00006364013B6061E3813A002B0021003000B8
:105A1000019500F0F1F81DB0F0BC08BC02B01847C9
:105A20004D5A001070B50C000E25495F01F03CFB8B
:105A3000002803DB236D1B18236570BDA389024A70
:105A40001340A381F9E7C046FFEFFFFF0020704736
:105A5000F8B516001F000C228B5E0C0005000E220C
:105A6000895EDA0507D50022022301F04FFA0C22E5
:105A7000A35E0E22A15E044A28001340A3813200D7
:105A80003B0001F091F8F8BDFFEFFFFF70B50C008F
:105A90000E25495F01F03AFA431C06D08023A28903
:105AA0005B011343A381206570BDA389014A1340A4
:105AB000A381F9E7FFEFFFFF10B50E23C95E01F0E8
:105AC00087F810BDF0B5002503260B4F435DFA5C47
:105AD0003240012A00D120334A5DBC5C3440012CA5
